:020000040800F2
:10000000C00600209D0100087F240008131B000883
:100010007D240008D5020008412A000800000000E5
:10002000000000000000000000000000EF240008B5
:10003000D702000800000000ED240008F1240008A9
:10004000B7010008B7010008B7010008B7010008B0
:10005000B7010008B7010008B7010008B7010008A0
:10006000B7010008B7010008B7010008B701000890
:10007000B7010008B7010008B7010008B701000880
:10008000B7010008B7010008B7010008B701000870
:10009000B7010008B7010008B7010008B701000860
:1000A000B7010008B7010008B7010008B701000850
:1000B000B7010008B7010008B7010008B701000840
:1000C000B7010008B7010008B7010008B701000830
:1000D000B7010008B7010008B7010008B701000820
:1000E000B7010008B7010008B7010008B701000810
:1000F000B7010008B7010008B7010008B701000800
:10010000B7010008B7010008B7010008B7010008EF
:10011000B7010008B7010008B7010008B7010008DF
:10012000B7010008B7010008B7010008B7010008CF
:10013000B7010008B7010008B7010008B7010008BF
:10014000B7010008B7010008B7010008B7010008AF
:10015000B7010008B7010008B7010008B70100089F
:10016000B7010008B7010008B7010008B70100088F
:10017000B7010008B7010008B7010008000000003F
:10018000B7010008B7010008DFF80CD000F090F8C4
:1001900000480047152C0008C0060020064880478C
:1001A00006480047FEE7FEE7FEE7FEE7FEE7FEE75C
:1001B000FEE7FEE7FEE7FEE7892500088901000863
:1001C0002DE9F05F0546002092469B46884606468C
:1001D000814640241BE0284641464746224600F01F
:1001E00057F853465A46C01A914110D31146184643
:1001F000224600F03EF82D1A67EB01084F462246D2
:100200000120002100F035F817EB00094E41201EB7
:10021000A4F10104DFDC484631462A464346BDE8E6
:10022000F09FD2B201E000F8012B491EFBD27047CB
:100230000022F6E710B513460A4604461946FFF7B2
:10024000F0FF204610BD30B50B46014600202022AD
:10025000012409E021FA02F59D4205D303FA02F5D3
:10026000491B04FA02F52844151EA2F10102F1DC33
:1002700030BD202A04DB203A00FA02F1002070474A
:100280009140C2F1200320FA03F3194390407047D4
:10029000202A04DB203A21FA02F00021704721FADB
:1002A00002F3D040C2F12002914008431946704742
:1002B000064C074D06E0E06840F0010394E80700B3
:1002C00098471034AC42F6D3FFF762FFB42C000815
:1002D000D42C0008FEE770473C21014801F0AAB980
:1002E0008001002072B6FEE770B5044600F00AF9FE
:1002F0000546601C02D004480078044400F002F96E
:10030000401BA042FAD370BD240000202DE9F84F15
:10031000DFF8B8A1002201250AF1040B03264FF0F3
:100320000F090BF1040E00BF0B6805FA02F423401D
:10033000A3426FD10F7907F00307012F01D0022FDD
:1003400016D187684FEA420806FA08FC27EA0C072C
:10035000D1F80CC00CFA08FC4CEA070CC0F808C035
:100360004768A7430C79C4F3001494403C434460AD
:100370000C79E443A4070AD0C4684FEA420C06FA99
:100380000CF7BC438F6807FA0CF72743C7600C795A
:1003900004F00304022C12D1D40800EB840CDCF826
:1003A00020405707FF0E09FA07F824EA0804D1F89D
:1003B000108008FA07F848EA0408CCF8208004689E
:1003C0004FEA420C06FA0CF7BC430F7907F003071B
:1003D00007FA0CF7274307604C68E40070D53C4CE3
:1003E000276847F480472760246822F0030704F455
:1003F00080440094374C07EB040CDCF8084897075E
:100400004FEA177809FA08F7BC43334FB84202D1D4
:10041000002724E054E0314FB84201D101271EE00B
:100420002F4FB84201D1022719E02E4FB84201D117
:10043000032714E02C4FB84201D104270FE02B4FC3
:10044000B84201D105270AE0294FB84201D1062759
:1004500005E0284FB84201D1072700E0082707FA36
:1004600008F72743CCF80878DAF800405746D1F867
:1004700004C09C435FEACC3C00D51C433C60DBF8E5
:1004800000405F46D1F804C09C435FEA8C3C00D535
:100490001C433C60DEF800407746D1F804C09C4322
:1004A0005FEACC2C00D51C433C60084F0C373C68FD
:1004B000D1F804C09C435FEA8C2C00D51C433C60FF
:1004C000521C102AFFF430AFBDE8F88F003C014009
:1004D0004438024000300140000002400004024065
:1004E00000080240000C02400010024000140240CC
:1004F00000180240001C02400069084000D00120A2
:100500007047000001488068704700002400002008
:1005100070B5040025D094F83D00002520B984F87A
:100520003C50204600F04CFA242084F83D0020681E
:10053000016821F0010101602068016841F4004177
:1005400001602068016821F40041016000F0E0FBD7
:100550004D4A6168914201D84C4900E04C498842BB
:1005600001D2012070BD4B492368B0FBF1F15E68F8
:1005700026F03F060E435E606368934206D94FF44F
:10058000967359434FF47A73B1FBF3F12368491C16
:100590001E6A26F03F06314319626168914210D805
:1005A0004900401EB0FBF1F2521CC2F30B02042AB8
:1005B00001D2042022E0B0FBF1F0401CC0F30B009C
:1005C0001CE0A268F2B301EBC10303EB0116431E6A
:1005D000B3FBF6F35B1C43F480431B0549D092B395
:1005E00001EBC10202EB0111401EB0FBF1F0401C17
:1005F000C0F30B0040F4804040F400402168CA6919
:100600004CF6FF739A431043C861D4E907100143C5
:100610002068026822F0C00211430160D4E903019E
:1006200001432068826848F2FF339A431143816096
:10063000D4E9050108432168CA6822F0FF0210438B
:10064000C86001E00EE016E02068016841F0010199
:1006500001602564202084F83D00256384F83E5025
:10066000002070BD01EB4106431EB3FBF6F35B1C9B
:10067000B3E70120C2E701EB4101401EB0FBF1F0FE
:10068000401CC0F30B00B7E7A086010080841E0069
:1006900000093D0040420F002DE9FF4F83B09A460C
:1006A000DDE9119793460446DDF84080FFF72AFF05
:1006B000054694F83D00202870D119230122714984
:1006C0002046009501F036FB0028F5D194F83C0057
:1006D000012863D0012084F83C0020680168C90724
:1006E00003D1016841F0010101602068016821F433
:1006F00000610160222084F83D00402084F83E0023
:1007000000262664C4F82480A4F82A90608D2085F1
:100710005D48E062CDE9007553465A46204604998B
:1007200001F010FA00287CD1208DD0B1012821D011
:100730000228206824D0416980690090208D032818
:1007400069D801282BD0514902283B464FF00002BE
:10075000009559D08846204601F0ECFA002860D177
:100760003CE02068416981690091016841F40071B1
:10077000016077E02068016821F480610160F0E7A2
:10078000016821F4806101602068016841F4006122
:100790000160206841698069009063E06FE02A464B
:1007A0003946204601F045FB98BB20680069616A24
:1007B00008704EE02068016841F400710160206813
:1007C0000069616A0870606A401C6062218D491E80
:1007D0002185618D491E6185216838E020680168A6
:1007E00021F48061016020680069616A0870606AB4
:1007F000401C6062208D401E2085608D401E6085FB
:100800003B46002241460095204601F093FA00B98C
:10081000D0E706E0FFE72A463946204601F009FB0B
:1008200018B1012007B0BDE8F08F20680069616A47
:100830000870606A401C6062218D491E2185618DAF
:10084000491E618521684A69D24352070AD4096961
:100850000170606A401C6062208D401E2085608DA2
:10086000401E6085208D00287FF468AF202084F82A
:100870003D0084F83E6084F83C600020D2E702200E
:10088000D0E70000020010000000FFFF040001009C
:100890002DE9FF4F83B09A46DDE911979346044650
:1008A000DDF84080FFF72EFE054694F83D00202835
:1008B0007FD11923012240492046009501F03AFAE0
:1008C000002876D194F83C00012872D0012084F8E9
:1008D0003C0020680168C90703D1016841F00101AB
:1008E00001602068016821F400610160212084F822
:1008F0003D00402084F83E0000262664C4F8248091
:10090000A4F82A90608D20852C48E062CDE900751E
:1009100053465A462046049901F092F970B930E0E6
:100920002A463946204601F0B7FA58B1206C04280F
:1009300004D12068016841F400710160012007B012
:10094000BDE8F08F606A216800780861606A401C29
:100950006062218D491E89B22185628D521E628599
:1009600022685369DB435B070BD469B100781061DF
:10097000606A401C6062208D401E2085608D401E94
:100980006085208D0028CBD12A463946204601F0CB
:10099000ABF90028CAD154F83D0B016841F400714D
:1009A0000160202004F81E09E67766770020C6E77C
:1009B000FFE70220C3E70000020010000000FFFF75
:1009C000F0B587B0044614216846FFF731FC26686D
:1009D000214C204F204812220123032104251034EA
:1009E000BE4219D1066846F0020606600068CDE9ED
:1009F000023100F002000590C020CDE9000204950C
:100A000069461648FFF782FC206840F40010206019
:100A1000206800F4001019E0114FBE4217D106689B
:100A200046F020060660006800F0200005908DE882
:100A30000E00CDE9031569460A48FFF767FC2068F8
:100A400040F480002060206800F48000059007B02A
:100A5000F0BD000000540040303802400004024065
:100A600000580040001402403EB564230092012467
:100A7000CDE901430A46014623460248FFF70CFE32
:100A80003EBD00008C0000203EB5C824CDE90032F8
:100A90000A460146029401230148FFF7FDFD3EBDD1
:100AA0008C00002017B583B005AA642401238DE8CB
:100AB0001C000A4601460248FFF7EAFE06B010BDD8
:100AC0008C000020024881680278114481607047E0
:100AD000240000200B4810B5016841F4007101604A
:100AE000016841F480610160016841F48071016036
:100AF000032000F061F8002000F006F800F024F870
:100B0000002010BD003C024070B50D4D04464FF46E
:100B10007A712878B1FBF0F00A490968B1FBF0F06E
:100B200000F0A4FB48B9102C07D200222146501E29
:100B300000F022F800206C6070BD012070BD000044
:100B400024000020300000200A4808B5016841F464
:100B500080410160006800F4804000900548001F5B
:100B6000016841F080510160006800F08050009001
:100B700008BD000044380240F0B40E4B1B680C4620
:100B8000C3F30223C3F10705042D00D90425191D61
:100B9000072901D2002300E0DB1E012606FA05F139
:100BA000491E214099409E40761E16403143F0BCBC
:100BB00001F058BF0CED00E0064900F0070208689C
:100BC0004FF6FF03184040EA0220034A1043086032
:100BD000704700000CED00E00000FA052DE9F04739
:100BE0000E46050065D0DFF81481D8F80000F7B292
:100BF00000F00700B04207D288F80070D8F8000073
:100C000000F00700B04254D128683D4C810712D54E
:100C1000400703D5206840F4E050206028780007A2
:100C200003D5206840F4604020602068A96820F067
:100C3000F000084320602878C0072DD0304968684C
:100C40000839012812D0022813D0032811D00968CE
:100C5000890700292DDA216821F003010143216071
:100C6000FFF750FC814641F2883A0EE0096889039B
:100C7000EFE709688901ECE7FFF744FCA0EB090105
:100C8000514502D90320BDE8F0872068696800F06B
:100C90000C00B0EB810FEFD1D8F80010404601F006
:100CA0000701B14207D90770006800F00700B042A1
:100CB00001D00120E7E72878400705D52068E968DA
:100CC00020F4E050084320602878000706D520680B
:100CD000296920F4604040EAC100206000F038F843
:100CE0002168084AC1F30311515CC84006490860F5
:100CF00006480068FFF708FF0020C4E7003C0240F8
:100D0000083802409C2C00083000002028000020F9
:100D10000448054900680968044AC1F38221515C0E
:100D2000C84070473000002008380240AC2C000852
:100D30000448054900680968044AC1F34231515C1E
:100D4000C84070473000002008380240AC2C000832
:100D5000154810B5006810F00C02144813D014495F
:100D6000042A0FD0082A0ED10F4C241F22682368B2
:100D700002F03F025B0207D52068C0F38810A0FB99
:100D8000010106E0084610BD2168C1F38811A1FBEE
:100D900000010023FFF714FA2168C1F30141491C47
:100DA0004900B0FBF1F010BD083802400024F40007
:100DB00040787D012DE9F84F04006ED02078DFF8EF
:100DC0004C93C007A9F104054AD009F10400016859
:100DD000C1F38101012908D00068C0F38100022815
:100DE0000AD1D9F80000400206D52868800337D51B
:100DF00060680028E1D033E06068B0F5803F10D033
:100E0000B0F5A02F286810D020F480302860286822
:100E100020F4802028606068A8B1FFF773FB0646C5
:100E20000DE0286840F48030F4E740F4802028602A
:100E3000F7E700BFFFF766FB801B642873D82868BC
:100E40008003F7D50CE0FFF75DFB064605E000BF29
:100E5000FFF758FB801B6428F0D828688003F7D47C
:100E60002078DFF8AC8280074FF0000A3ED5A74813
:100E7000001D016811F00C0F08D00068C0F381005C
:100E800002280BD1D9F80000400207D42868800757
:100E900016D5E068012800D112E033E1E068B8B16E
:100EA0000120C8F80000FFF72DFB064605E000BF53
:100EB000FFF728FB801B0228C0D828688007F7D5D9
:100EC0002868216920F0F80040EAC10028600DE0A0
:100ED000C8F800A0FFF716FB064604E0FFF712FB78
:100EE000801B02281FD828688007F7D420780007C5
:100EF00022D5864F87486169703771B10121016041
:100F0000FFF700FB064604E0FFF7FCFA801B02280F
:100F100009D838688007F7D50EE0C0F800A0FFF7C1
:100F2000F1FA064605E082E0FFF7ECFA801B0228A2
:100F30007DD838688007F7D42078400768D5DFF877
:100F4000CCB100270BF13C0BDBF80000C0000BD448
:100F5000DBF8001041F08051CBF80010DBF8000006
:100F6000012700F0805000906B4E3068C00510D40F
:100F7000306840F480703060FFF7C4FA009005E0FC
:100F8000FFF7C0FA0099401A022850D83068C0050F
:100F9000F6D55E4EA0686C3601280FD00528306863
:100FA00010D020F001003060306820F00400306084
:100FB000A068B8B1FFF7A6FA00900FE0306840F0E3
:100FC0000100F4E740F004003060F7E7FFF79AFA19
:100FD0000099411A41F28830814266D83068800712
:100FE000F4D50EE0FFF78EFA009007E0FFF78AFADB
:100FF0000099411A41F28830814256D83068800702
:10100000F4D42FB1DBF8001021F08051CBF80010A0
:10101000A069C8B33D49091D0968C1F381010229CE
:101020004AD00228504607D0C8F8600000E03CE0F3
:10103000FFF768FA04463BE04746C8F86000FFF750
:1010400061FA064605E000BFFFF75CFA801B022844
:101050002BD828688001F7D4D4E907010843A16A96
:101060002E4A490802EB0141626A41EA82110843B3
:1010700094F82C1040EA0161C9F80010012038668C
:10108000FFF740FA044606E03EE000BFFFF73AFAF9
:10109000001B022809D828688001F7D534E000BF7A
:1010A000FFF730FA001B022802D90320BDE8F88FB1
:1010B00028688001F4D427E00128F7D0D9F800008F
:1010C000E26900F4800191421CD1226A00F03F01E4
:1010D000914217D147F6C071626A0140B1EB821F9D
:1010E00010D1A26A4FF0FF3300F4403103EB5202FB
:1010F000B1EB024F06D194F82C1000F07060B0EB09
:10110000016F01D00120D1E70020CFE70438024071
:1011100000004742800E4742007000400000FFFF81
:1011200070B5040009D0606A002540B12561656191
:10113000A56294F8510040B10CE0012070BD6068D8
:10114000B0F5827FF4D0E561F2E784F85050204694
:1011500000F044F8022084F851002068016821F072
:1011600040010160A088218900F4827001F40441EB
:101170000843A18901F400610843217C01F00201C8
:101180000843217D01F001010843218B01F4007126
:101190000843217F01F03801084394F8201001F042
:1011A00080010843218D01F4005108432168086043
:1011B000A069042101EA104094F8241001F0100104
:1011C0000843216848602068C16921F40061C16159
:1011D0006565012084F85100002070BDF0B587B02E
:1011E000044614216846FFF723F81C49206888420A
:1011F00032D11B480024016841F48041016000683D
:1012000000F48040059016481038016841F0040150
:101210000160016801F004010591016841F00201DB
:1012200001600068022500F0020005900420CDE96D
:10123000000502AA0326052782E8D000694609486E
:10124000FFF764F86802CDE9000502AA694682E862
:10125000D0000548FFF75AF807B0F0BD003800404D
:1012600040380240000802400004024010B5401E11
:10127000B0F1807F01D3012010BD4FF0E024606108
:101280000F21601701F0EEFB0020A0610720206114
:10129000002010BD10B590F83C20012A22D0012278
:1012A00080F83C20CA688C6822F4407222434C6863
:1012B00022F4806222430C6822F4006222430C690B
:1012C00022F4805222434C6922F400522243C9691D
:1012D000002322F480420A4301684A6480F83C30CB
:1012E000002010BD022010BD70B590F83C20012AEE
:1012F00032D0012480F83C40022280F83D2003686F
:101300005A689D6822F070060A6832435A60134B8F
:1013100002689A4214D0B2F1804F11D0104B9A4219
:101320000ED0104B9A420BD00F4B9A4208D00F4B65
:101330009A4205D00E4B9A4202D00E4B9A4204D1EB
:10134000496825F080031943916080F83D400021F1
:1013500080F83C10084670BD022070BD00000140BE
:101360000004004000080040000C00400004014060
:10137000004001400018004010B5040003D094F86C
:101380003D0010B107E0012010BD002084F83C00B2
:10139000204600F01FF8022084F83D00211D20683F
:1013A00001F0FAF8012084F8460084F83E0084F841
:1013B0003F0084F8400084F8410084F8420084F83B
:1013C000430084F8440084F8450084F83D00002080
:1013D00010BD000008B50C4A01680C48914207D1C5
:1013E000016841F001010160006800F0010009E0BE
:1013F000074A914207D1016841F00201016000688B
:1014000000F00200009008BD000001404438024096
:101410000004014070B5044690F83C00012817D044
:10142000012584F83C50022084F83D002068826841
:1014300022F0770222F47F4282600868502830D080
:101440000DDC20284DD005DC98B310283BD148E0B6
:10145000022070BD302844D0402834D139E06028C3
:1014600028D0702806D0B0F5805F2CD0B0F5005F92
:1014700029D10AE0CB68D1E90121206801F0FDF80B
:101480002068816841F0770109E0CB68D1E901214A
:10149000206801F0F2F82068816841F480418160A1
:1014A00011E0CA684968206801F0BCF95021206841
:1014B00007E016E0CA684968206801F0C4F96021B5
:1014C000206801F0E4F884F83D50002084F83C00E6
:1014D00070BDCA684968206801F0A4F940212068FD
:1014E000EFE7226801461046EBE72DE9F0410D4693
:1014F000040003D094F83D0018B108E00120BDE8D5
:10150000F081002084F83C00204600F041F80220E1
:1015100084F83D002068816844F2070291438160AD
:10152000211D206801F038F8226890689169166AD8
:101530002B68AF69034340F20330814341EA07213E
:10154000A868EF6908434FF6FC418843E96840EA20
:101550000720014328692F6A000140EA0730084349
:1015600069686D6926F0AA0646EA05152943936065
:101570002268906154F8460B0162012004F81F09AB
:10158000E0752076E0762077A0750020B7E70000B0
:1015900030B587B0044614216846FEF749FE21485D
:1015A00024681F4D00221F4910380223AC4216D177
:1015B0000C6844F002040C60096801F00201059116
:1015C000016841F0010101600068694600F0010016
:1015D0000590C0200090CDE90132134819E0134D69
:1015E000AC421AD10C6844F004040C60096801F0A4
:1015F00004010591016841F0080101600068694635
:1016000000F0080005904FF440500090CDE9013201
:101610000748CDE90323FEF779FE07B030BD00008F
:101620000004004040380240000002400008004032
:10163000000C024070B590F83E60044690F83F50B0
:1016400090F8423090F84320022021B104290ED0B6
:10165000012E1BD114E0012E18D1012B16D184F8D4
:101660003E0084F8420001220021206820E0012D84
:101670000CD1012A0AD184F83F0084F8430014E019
:10168000012D03D1012B01D1012A01D0012070BD10
:1016900084F83E0084F83F0084F8420084F8430058
:1016A00001220021206800F0DBFF012204212068D4
:1016B00000F0D6FF2068016841F0010101600020C0
:1016C00070BD000010B586B0044614216846FEF7D0
:1016D000AFFD2368174C002117480222A34211D105
:1016E000036843F010030360006800F010000590E9
:1016F00010020090CDE901210120CDE903106946D7
:101700000E4813E00E4CA34212D1036843F00403C9
:101710000360006800F004000590C0200090CDE94F
:1017200001210320CDE9031069460648FEF7EEFDCE
:1017300006B010BD000001403038024000100240E9
:10174000000401400008024010B5044690F83C0037
:1017500001280AD0012084F83C0042B1042A0AD0B2
:10176000082A0CD00C2A11D10DE0022010BD2068EF
:1017700000F096FF0AE0206800F0C2FF06E0206853
:1017800000F0F4FF02E0206801F024F8002084F863
:101790003C0010BD10B5040003D094F83D0010B11A
:1017A00007E0012010BD002084F83C00204600F036
:1017B0001EF8022084F83D00211D206800F0ECFE98
:1017C000012084F8460084F83E0084F83F0084F845
:1017D000400084F8410084F8420084F8430084F813
:1017E000440084F8450084F83D00002010BD704797
:1017F00070B5044690F83C000D4601280AD001203F
:1018000084F83C0042B1042A18D0082A2AD00C2AB5
:101810004DD139E0022070BD206800F041FF206802
:10182000816941F0080181612068816921F004012A
:101830008161206881692A69114311E0206800F004
:101840005FFF2068816941F40061816120688169DE
:1018500021F480618161206881692A6941EA02215D
:10186000816124E0206800F081FF2068C16941F0B7
:101870000801C1612068C16921F00401C1612068CB
:10188000C1692A69114311E0206800F0A3FF2068B4
:10189000C16941F40061C1612068C16921F48061BE
:1018A000C1612068C1692A6941EA0221C161002041
:1018B00084F83C0070BD10B5040003D094F83D00DE
:1018C00010B107E0012010BD002084F83C00204644
:1018D00000F01EF8022084F83D00211D206800F071
:1018E0005BFE012084F8460084F83E0084F83F0047
:1018F00084F8400084F8410084F8420084F84300F2
:1019000084F8440084F8450084F83D00002010BDB0
:101910007047000030B504460D460068002200F014
:101920009FFE194B41F2111120688A10984202D093
:10193000164B984209D1036A0B4206D1036A13423F
:1019400003D1436C23F4004343642068036A0B42D1
:1019500006D1016A114203D1016821F00101016041
:1019600001203DB1042D08D0082D09D084F8410094
:10197000002030BD84F83E00FAE784F83F00F7E726
:1019800084F84000F4E7000000000140000401403A
:1019900070B5040004D094F83D00002510B106E0B5
:1019A000012070BD84F83C50204600F023F824202C
:1019B00084F83D002068C16821F40051C1602046D0
:1019C00000F086FF2068016921F4904101612068E0
:1019D000416921F02A0141612068C16841F4005148
:1019E000C1602564202084F83D0084F83E0000207A
:1019F00070BD000010B586B0044614216846FEF79D
:101A000017FC14492068884221D11348002102683C
:101A100042F010020260006800F0100005900E48CD
:101A20001438026842F001020260006800F0010010
:101A300005904FF4C06000900220CDE90101032021
:101A400003900720049069460448FEF75FFC06B047
:101A500010BD000000100140443802400000024068
:101A60002DE9F843044690F83D001F4616460D4602
:101A700020284CD1C5B1BEB194F83C00012846D015
:101A8000012084F83C004FF00008C4F84080212079
:101A900084F83D00FEF736FDA6848146E684A06802
:101AA000B0F5805F03D004E00120BDE8F883206931
:101AB00028B12E465FF0000584F83C800EE0002639
:101AC000FAE78021204600F089FFA0B9AEB116F8F0
:101AD000010B21684860E08C401EE084E08C4B469E
:101AE0004FF0000200970028EBD14FF04001204654
:101AF00000F074FF30B10320D7E735F8020BC0F3D4
:101B00000800E6E7202084F83D000020CDE7022011
:101B1000CBE7FEE701684A69D24352050FD46FF460
:101B200080624A61002140F8301F20224273817395
:101B3000026942F004020261017301207047002033
:101B4000704700002DE9F84F0446006889460B9D58
:101B500001689846174641F4806101602068016879
:101B600041F48071016000954FF0011B002259463D
:101B700020460A9B00F0DEF84FF4007A40B120685E
:101B80000068C00501D5C4F840A00320BDE8F88F67
:101B9000216809F0FE0008612B46284920460A9A70
:101BA00000F0FCF8F0BB20684169806900902A468B
:101BB00020460A9900F070F940B1206C04283AD10F
:101BC0002068016841F40071016034E0FEB2B8F1B0
:101BD000010F09D02168380A08612A4620460A996F
:101BE00000F05AF90028E8D1206806612A4620460C
:101BF0000A9900F051F90028DFD12068016841F40A
:101C00008071016000950022594620460A9B00F031
:101C100091F80028B3D1216809F0FF0040F00100DD
:101C2000086100E007E02B46044920460A9A00F0CC
:101C3000B5F80028AAD00120A8E7000002000100A2
:101C40002DE9F843044600680D46DDE90897016870
:101C50009846164641F4807101604B4600224FF0D1
:101C600001112046009700F065F848B1206800682F
:101C7000C00502D54FF4007020640320BDE8F8834E
:101C8000216805F0FE0008613B464A46154920469A
:101C900000F084F888B920684169806900903A466C
:101CA0004946204600F0F8F848B1206C042804D1D9
:101CB0002068016841F4007101600120DEE7F5B29F
:101CC000B8F1010F09D02168300A08613A46494647
:101CD000204600F0E1F80028E7D1206805610020E7
:101CE000CCE700000200010070B516460D46044620
:101CF0000DE02046FFF70EFF08B1012070BD681C03
:101D000005D0FEF7FFFB801BA84207D835B120683D
:101D10004069C0434007ECD4002070BD002044F867
:101D2000300F20216173A073216941F020012161EE
:101D30002073E2E72DE9F0471E4690460D46044623
:101D4000C1F30747DDF8209008E0701C06D0FEF7CD
:101D5000D9FBA0EB0900B0420FD876B12068012F63
:101D600018D0806925EA00000004000C14D000217E
:101D70004145EAD00020BDE8F087002044F8300F4C
:101D800020216173A073216941F02001216120733A
:101D90000120F0E74069E5E70121E9E72DE9F04797
:101DA0009A4691460E46044600254FF02008C1F39E
:101DB000074725E020684069C043400514D42068E7
:101DC000016841F40071016021686FF4806048612E
:101DD000256384F83D8084F83E50206C40F0040078
:101DE000206484F83C501FE0B9F1FF3F08D0FEF7B3
:101DF00089FBA0EB0A0149450CD8B9F1000F09D0C5
:101E00002068012F13D0806926EA00000004000C2E
:101E10000BD0CFE744F8305F84F80D80A5732069BC
:101E200040F02000206125730120BDE8F087406963
:101E3000EAE72DE9F041002590460E4604462027AA
:101E400017E04069C043C0060CD454F8301B6FF053
:101E50001000486144F810596777A577206A20621E
:101E6000257717E0FEF74EFBA0EB0800B04208D83C
:101E70003EB120684169C9434906E2D40020BDE86B
:101E8000F08144F8305F6773A573206940F020004B
:101E9000206125730120F2E770B516460D46044611
:101EA0000DE02046FFF736FE08B1012070BD681C2A
:101EB00005D0FEF727FB801BA84207D835B1206864
:101EC0004069C0430006ECD4002070BD002044F8F7
:101ED000300F20216173A073216941F0200121613D
:101EE0002073E2E708B56946752000F09BF89DF87D
:101EF0000000682822D180216B2000F09DF864202A
:101F0000FEF7F2F900216B2000F096F8002138204E
:101F100000F092F818211B2000F08EF808211C20F8
:101F200000F08AF804211A2000F086F80021192018
:101F300000F082F80221372000F07EF808BD134639
:101F40000A4610B50146D020FEF79EFD002800D0BD
:101F5000012010BD0B490A8802804A884280898886
:101F600081800849891D0A88C2804A88028189883F
:101F7000418104490C310A8882814A88C28189885A
:101F800001827047000000201CB56A4606213B20F4
:101F9000FFF7D5FFBDF8000041BA05480180BDF844
:101FA000021049BA4180BDF8041049BA81801CBDB5
:101FB000000000201CB56A4606214320FFF7BFFF42
:101FC000BDF8000041BA05480180BDF8021049BAC9
:101FD0004180BDF8041049BA81801CBD0600002074
:101FE0001CB50221372000F027F80A20FEF77CF903
:101FF00011210A2000F020F80A20FEF775F96A4640
:1020000006210320FFF79BFF0548BDF80010018063
:10201000BDF802104180BDF8041081801CBD000095
:102020000C0000200A4610B50146D020FEF71CFD2A
:10203000002800D0012010BD0A4610B50146D0206E
:10204000FEF730FD002800D0012010BD10B586B08D
:1020500014216846FEF7ECF825480024016841F099
:1020600010010160016801F010010591016841F063
:1020700004010160016801F004010591016841F06B
:1020800020010160016801F020010591016841F023
:1020900080010160016801F080010591016841F053
:1020A00001010160016801F001010591016841F041
:1020B00002010160016801F002010591016841F02F
:1020C000080101600068694600F0080005901020D2
:1020D000CDE9000407480294FEF718F90120CDE984
:1020E0000004694604480294FEF710F906B010BDDA
:1020F0003038024000100240000002400D4810B588
:102100000B4901600C49416000217822C0E90212AC
:102110004FF48042C0E904218161C1610162FEF790
:10212000F7F9002803D0BDE81040FEF7DBB810BD7A
:102130000054004038000020A08601000D4810B572
:102140000B4901600C4941600021EA22C0E90212FA
:102150004FF48042C0E904218161C1610162FEF750
:10216000D7F9002803D0BDE81040FEF7BBB810BD7A
:10217000005800408C000020801A0600104810B55E
:102180000E4901604FF4827141604FF480618160BB
:102190000021C1604FF400720161C0E90512C16104
:1021A0000162416281620A21C162FEF7B9FF002823
:1021B00003D0BDE81040FEF795B810BD00380040D0
:1021C000E000002010B596B000240F9410941194F4
:1021D000129413941C2108A81494FEF729F82021C6
:1021E0006846FEF725F828482649C0E900144FF64E
:1021F000FF71C0E90241046144618461FFF7BCF8EA
:1022000008B1FEF76FF84FF480500F900FA91E48E9
:10221000FFF700F908B1FEF765F81B48FFF7BAFAB7
:1022200008B1FEF75FF8139413A917481494FFF749
:102230005BF808B1FEF756F85020CDE908040A947F
:102240000B940C940D94002208A90F480E94FFF7EC
:102250007BFA08B1FEF746F800944FF40050CDE940
:102260000440029401940394694607480794FFF7D9
:1022700011F808B1FEF736F80348FFF723FA16B055
:1022800010BD0000000001403801002010B58CB0E6
:1022900024216846FDF7CCFF002416480994144910
:1022A0000A9401600321C0E901144FF6FF72C0E9EE
:1022B0000324846100910120CDE90140039404943A
:1022C000CDE90540079469460A480894FFF70DF9DF
:1022D00008B1FEF707F8099409A906480A94FFF720
:1022E00003F8002801D0FDF7FDFF0CB010BD000081
:1022F000000400408001002010B58CB02421684605
:10230000FDF796FF00241748099415490A940160C7
:102310000321C0E901144FF6FF72C0E90324846170
:1023200000910120CDE9014003940494CDE90540DA
:10233000079469460B480894FFF7D7F808B1FDF7F2
:10234000D1FF099409A907480A94FEF7CDFF08B107
:10235000FDF7C8FF3C210348FFF76CF90CB010BD36
:1023600000080040C801002010B596B000240F946A
:1023700010941194129413941C2168461494FDF740
:1023800057FF202107A8FDF753FF2D482B49016077
:102390004FF4FA71C0E901148900C0E903144461E3
:1023A0008461FEF7E9FF08B1FDF79CFF4FF4805010
:1023B0000F900FA92248FFF72DF808B1FDF792FF03
:1023C0001F48FFF778FA08B1FDF78CFF139413A9A3
:1023D0001B481494FEF788FF08B1FDF783FF6020C7
:1023E00000904FF47A70CDE90104039404940594AD
:1023F0000022694612480694FFF7FAF908B1FDF782
:1024000071FF042269460E48FFF7F2F908B1FDF7A3
:1024100069FF0794089409944FF400500A94CDE999
:102420000B4007A906480E94FEF734FF08B1FDF7EC
:1024300059FF0348FFF746F916B010BD00040140EC
:10244000100200200C4810B50A4901604FF4E13138
:102450004160002181600C22C160C0E904128161E9
:10246000C161FFF795FA002803D0BDE81040FDF7E1
:1024700039BF10BD0010014058020020FEE7FEE702
:102480000C48DFED0B0AB7EE000AC0ED000AC0ED04
:10249000010AC0ED020AC0ED030AC0ED070A80ED93
:1024A000040A9FED050AC0ED050A80ED060A704793
:1024B000000000009C020020CDCCCCBE10B53C2119
:1024C0000748FFF727FA3C210648FFF723FA06489A
:1024D00040F2E731026811604068016010BD000001
:1024E00038010020100200201400002070477047BF
:1024F000FEF7E8BA30B593B030216846FDF798FE94
:1025000014210CA8FDF794FE1D480025016841F038
:1025100080510160006800F08050119019480168F6
:1025200041F4804101600068022400F48040119071
:102530000120039010200490009406940820CDE917
:102540000750A820CDE9090404200B906846FEF747
:1025500031FC08B172B6FEE70CA90F2081E831000A
:102560004FF4A0500F904FF48050109005210CA80C
:10257000FEF734FB002801D072B6FEE713B030BD81
:1025800040380240007000400248016841F4700188
:102590000160704788ED00E0F0B50268254C264DDB
:1025A000264E274F274B4FF0804CA04209D0604564
:1025B00007D0A84205D0B04203D0B84201D098421B
:1025C00004D122F0700E4A6842EA0E02A0421BD0EB
:1025D000604519D0A84217D0B04215D0B84213D0E8
:1025E000984211D0184DA8420ED0184DA8420BD0D9
:1025F000174DA84208D0174DA84205D0164DA84245
:1026000002D0164DA84203D122F44075CA682A436D
:102610004D6922F080022A4302608A68C2620A6819
:102620008262A04201D0984201D10969016301216F
:102630004161F0BD0000014000040040000800407E
:10264000000C0040000401400040014000440140F3
:102650000048014000180040001C004000200040DD
:1026600010B501F01F030121046A99408C430462F4
:10267000016A9A401143016210BD10B5846842EAB4
:10268000032224F47F440A432243826010BD8268FF
:1026900022F070020A4342F0070181607047000097
:1026A000F0B5026A22F001020262036A426884699C
:1026B000124E24F073050C682C4323F002058B683E
:1026C0002B430D4DA84201D0B04205D123F008079D
:1026D000CB683B4323F00403A84201D0B04205D1AC
:1026E0004D6922F4407215438A692A43426084612D
:1026F000496841630362F0BD0000014000040140ED
:10270000F0B5026A22F010020262026A436884692C
:102710000D6824F4E64444EA05248D6822F0200282
:1027200042EA05120F4D104EA84201D0B04206D128
:10273000CF6822F0800242EA071222F04002A8424B
:1027400001D0B04207D14D6923F4406343EA8503C9
:102750008D6943EA8503436084614968816302624D
:10276000F0BD00000000014000040140F0B5026A25
:1027700022F480720262026A4368C46922F4007221
:1027800024F073050C68124E2C438D6842EA052232
:102790000E4DA84201D0B04206D1CF6822F40062AB
:1027A00042EA072222F48062A84201D0B04207D157
:1027B0004D6923F4405343EA05138D6943EA051339
:1027C0004360C4614968C1630262F0BD000001401A
:1027D0000004014030B5026A22F480520262046AA9
:1027E0004268C3690D6823F4E64343EA05238D6814
:1027F00024F4005444EA0534084DA84202D0084DA0
:10280000A84204D14D6922F4804242EA8512426016
:10281000C36149680164046230BD000000000140EA
:102820000004014010B5036A046A24F00104046244
:10283000846924F0F00444EA021423F00A020A43F3
:102840008461026210BD10B5036A23F010030362B5
:102850008369046A23F4704343EA023224F0A0033C
:1028600043EA01118261016210BD000070B5154C90
:1028700010212046FDF740FE134D28B101212846C6
:10288000FDF73AFE002817D10520FDF72DFD102198
:102890002046FDF731FE0D4C48B101212846FDF7D9
:1028A0002BFE002808D1207848B1401E03E0207894
:1028B000032802D0401C207070BD0020FBE70320DD
:1028C000F9E7000000100240000002401200002062
:1028D00070B5044600680169E26821F44051114373
:1028E00001612169A068E2690843616911430843F5
:1028F0002168CA6849F20C639A430243CA6020689F
:102900004169A26921F44071114341613149206854
:10291000884202D03049884202D1FEF709FA01E02C
:10292000FEF7F6F9E2690023192164253226B2F593
:10293000004F626828D0A0FB0101930F9200FDF7C1
:102940003FFC0146B0FBF5F06FF01802504301EB7D
:10295000800006EB0010B0FBF5F000F0F002B1FBD8
:10296000F5F002EB0012B1FBF5F06FF018035843DD
:1029700001EB800006EB0010B0FBF5F000F00F005B
:1029800021681044886070BDA0FB010192185B4172
:10299000FDF716FC0146B0FBF5F00201B1FBF5F0C6
:1029A0006FF01803584301EB800006EBC000B0FB4A
:1029B000F5F000F0F80002EB4002B1FBF5F05843EF
:1029C00001EB800006EBC000B0FBF5F000F0070063
:1029D000D6E7000000100140001401402DE9F0414D
:1029E000984617460E460446069D1DE0681C1BD0FF
:1029F0002DB1FDF787FDA0EB0800A84214D920688F
:102A0000C16821F4D071C1602068416921F00101E1
:102A10004161202084F83D0084F83E00002084F8C5
:102A20003C000320BDE8F0812068006836EA000021
:102A300004D00020B842D9D00020F3E70120F9E704
:102A4000FEE700000FB4054B10B503A9044A029835
:102A500000F028F810BC5DF814FB0000F92B00080A
:102A6000340000200907090E002804DB00F1E020F3
:102A700080F80014704700F00F0000F1E02080F8AB
:102A8000141D704702E008C8121F08C1002AFAD1BD
:102A900070477047002001E001C1121F002AFBD1DE
:102AA000704700002DE9FF4F89B09B460446002582
:102AB00006E025280BD05A460B999047641C6D1CE4
:102AC00020780028F5D10DB02846BDE8F08F00270A
:102AD000B8460122474900E0074314F8013F203B74
:102AE00002FA03F00842F7D120782E2819D114F801
:102AF000010F47F004072A280ED06FF02F0220782C
:102B0000A0F1300109290CD808EB880102EB410142
:102B100000EB0108641CF2E70A98641C50F8048B6F
:102B20000A9020780028CED0642808D0692806D0E2
:102B300075281ED05A460B9990476D1C58E00A998B
:102B40004FF00A0901C90A91002802DA40422D21FA
:102B500002E0390504D52B218DF82010012103E076
:102B6000F90704D02021F7E78A4608AE0DE00021DE
:102B7000FAE70A994FF00A0901C90A91F7E74946AD
:102B8000FDF761FB303106F8011D0028F7D1ADEBF0
:102B9000060000F12009780701D44FF00108C8456C
:102BA00002DDA8EB090000E000208046002706E0D7
:102BB00008A85A46C05D0B9990476D1C7F1C57456D
:102BC000F6DB04E030205A460B9990476D1CB8F1B3
:102BD0000001A8F10108F5DC05E016F8010B5A46E2
:102BE0000B9990476D1CB9F10001A9F10109F4DCC2
:102BF000641C65E70928010038B5044600904FF4CD
:102C00007A73012269460248FEF72AFF204638BD42
:102C100058020020FDF75EFFFFF76CFCFFF716FA85
:102C2000FFF76CFAFFF7AAFAFFF7CCFAFFF72EFBD3
:102C3000FFF79AFBFFF706FCFFF780FAFFF75CFB54
:102C4000FFF750F9FFF73AFCFDF746FBFFF718FCDA
:102C5000FFF70CFE00F002F8FAE7000000B585B0BF
:102C600014216846FDF7E4FAFFF78EF9FFF7A2F9A1
:102C7000FFF7B6F96846FFF76DF9BDF90C30BDF9FD
:102C80000620BDF9001002A0FFF7DCFE05B000BD74
:102C900025642C25642C25640D0A0000000000002A
:102CA00000000000010203040607080900000000FC
:102CB00001020304D42C00080000002038000000AA
:102CC000842A00080C2D0008380000208806000027
:102CD000942A00080000000000000000000000002E
:102CE00000000000000000003400014034040140F6
:102CF00000000000000000000100000010000000C3
:0C2D0000000000000024F40000000000AF
:040000050800018965
:00000001FF
