:020000040800F2
:10000000C81D0020D5020008D17500081B6E00082D
:1000100021740008ED6C00089B7E000800000000C1
:10002000000000000000000000000000AD770008A4
:10003000F16C00080000000061760008C578000837
:10004000EF020008EF020008EF020008EF020008CC
:10005000EF020008EF020008F36C0008EF0200084E
:10006000036D0008136D0008236D0008EF020008FF
:10007000EF020008EF020008EF020008EF0200089C
:10008000EF020008EF020008EF020008EF0200088C
:10009000EF020008EF020008EF020008EF0200087C
:1000A000EF020008EF020008EF020008EF0200086C
:1000B000EF020008EF020008EF020008EF0200085C
:1000C000EF020008EF020008EF020008EF0200084C
:1000D000EF0200087D7C0008EF020008EF02000834
:1000E000EF020008EF020008EF020008EF0200082C
:1000F000EF020008EF020008EF020008EF0200081C
:10010000EF020008EF020008EF020008EF0200080B
:10011000EF020008EF020008EF020008EF020008FB
:10012000EF020008EF020008EF020008EF020008EB
:10013000EF020008EF020008EF020008EF020008DB
:10014000EF020008EF020008EF020008EF020008CB
:10015000EF020008EF020008EF020008EF020008BB
:10016000EF020008EF020008EF020008EF020008AB
:10017000EF020008EF020008EF020008EF0200089B
:10018000EF020008EF02000800F002F800F092F819
:100190000AA090E8000C82448344AAF10107DA45E2
:1001A00001D100F087F8AFF2090EBAE80F0013F0A2
:1001B000010F18BFFB1A43F001031847880C010018
:1001C000A80C0100103A24BF78C878C1FAD85207A9
:1001D00024BF30C830C144BF04680C6070470000C1
:1001E0000023002400250026103A28BF78C1FBD840
:1001F000520728BF30C148BF0B6070476E2905F019
:100200002283702905F0058066290FF0C8846529CE
:100210000FF0C58467290FF0C28461290FF0C184F3
:1002200003681B0A28BF41F08001692904F0768722
:10023000642904F07387752904F070876F2905F02D
:100240001286782904F0D187E92905F0AD85E429E3
:1002500005F0AA85F52905F0A785EF2905F00F8699
:10026000F82904F0D0870368DB0928BF41F080013A
:10027000632906F02580732906F02A80E32906F019
:100280003580F32906F03A80002070471FB50FF043
:100290001CFC05F0FFFD0400002000210EF0EAFC2C
:1002A000401C6060002000210EF0CEFCE0601FBD0D
:1002B00010B510BD06F0C0F81146FFF7E7FF0CF0CF
:1002C00031FF06F0E7F803B4FFF7F2FF03BC09F0D3
:1002D00018F900000948804709480047FEE7FEE793
:1002E000FEE7FEE7FEE7FEE7FEE7FEE7FEE7FEE7E6
:1002F00004480549054A064B70470000C9780008C4
:1003000089010008C8170020C81D0020C819002056
:10031000C8190020FE49C1F8E80070472DE9F04FE8
:10032000DFF8ECB30026044685B0174698468A46A7
:100330003546B146DBF8AC000EF06FFF3A46434657
:100340000EF096FF7ED3DBF8B0000EF066FF3A4663
:1003500043460FF0C7F8F5D3B4F90000B4F906101E
:10036000401A0EF05AFF3A4643460EF081FF00D283
:100370000126B4F90E00B4F91410401A0EF04DFF26
:100380003A4643460EF074FF00D2761CB4F91C00C6
:10039000B4F92210401A0EF040FF3A4643460EF0E0
:1003A00067FF00D2761CDB4B012E4BDC0022384667
:1003B00041460EF099FF07460E46B4F90000B4F925
:1003C0000610401A0EF029FF3A4633460FF08AF81D
:1003D00000D20125B4F90E00B4F91410401A0EF041
:1003E0001CFF3A4633460FF07DF800D26D1C3146B3
:1003F0003E460F46B4F91C00B4F92210401A0EF024
:100400000CFF32463B460FF06DF800D26D1C002DFC
:1004100003DD022005B0BDE8F08F002606EB4600A4
:1004200004EB80050390B5F90A000EF0F6FEDAE958
:10043000047843463A460FF063F983460091B5F9D4
:10044000040000E053E00EF0E8FE43463A460FF0A9
:1004500057F95A46009B0EF047FF83460291B5F9C3
:1004600008000EF0DAFEDAE9027843463A460FF069
:1004700047F9CDE90001B5F902000EF0CEFE434682
:100480003A460FF03DF9DDE900230EF02DFF8046DE
:100490000491B5F906000EF0C0FEDAE900572A46CD
:1004A0003B460FF02DF9CDE90001039834F9200007
:1004B0000EF0B3FE2A463B460FF022F9DDE9002399
:1004C0000EF012FF4246049B0EF028FC5A46029B97
:1004D0000EF024FC002213460EF0CAFE01D209F1F0
:1004E0000109761C032E99DBB9F1020F01DA012014
:1004F00090E700208EE788490A684B68D00180EABF
:10050000D20080EA031048608B68520380EAC3037C
:1005100082EA5312520282EAD0208B600860704750
:1005200070B50546FFF7E7FF0FF061FA7B490FF062
:100530007DFA6FF01F0631460FF095FB09F0A4FB22
:100540000446FFF7D8FF0FF052FA31460FF08BFB4D
:1005500010F0FF4F01D14FF07E500FF0BBF90CF0BF
:10056000D9FD00224FF040430EF0BEFE0EF0A4FB7A
:100570000EF0F5FA29460FF059FA2146BDE8704011
:100580000FF054BA2DE9FE4F054690460E46184628
:100590000FF0A0F9CDE90010D6E930230EF0A4FE4B
:1005A00004460F4640460FF095F90291F5E93023D5
:1005B00083460EF099FE22463B460EF0AFFB65E8FF
:1005C00030010024DDE90010074606EBC400824636
:1005D0000CC838460EF088FE05EBC4078046D7E904
:1005E00000238946584602990EF07EFE42464B464D
:1005F0000EF094FBC7E90001DDE90010DAE92423DD
:100600000EF072FED7E924238046894658460299A7
:100610000EF06AFE42464B460EF080FB641CC7E9B2
:100620002401062CCEDB0024DDE90010074606EB92
:10063000C400D0E9122338460EF056FE05EBC40282
:100640000746D2E912C38846914658460299624647
:100650000EF04AFE3A4643460EF060FB641CC9E9C0
:100660001201092CE0DB0024DDE90010074606EB4F
:10067000C400D0E90C2338460EF036FE05EBC40268
:100680000746D2E90CC3884691465846029962460D
:100690000EF02AFE3A4643460EF040FB641CC9E9C0
:1006A0000C01032CE0DBBDE8FE8F2DE9F04F044682
:1006B00091B00F4608680EF0B0FDCDE90E01054679
:1006C0000E4678680EF0A9FD81468A46B8680EF09D
:1006D000A4FD83468846D4E930015F460022104BD2
:1006E0000EF01CFBC4E93001D4E90C012A46334664
:1006F0000EF014FBC4E90C01D4E90E014A4653463E
:100700000EF00CFBC4E90E0143463A460AE0000035
:10071000480A00200000044070000020DB0FC940A0
:100720000000F03FD4E910010EF0F8FAC4E910011E
:100730002A463346284631460EF0D6FDCDE905015E
:10074000D4E900230EF0EAFAC4E900014A46534610
:10075000284631460EF0C8FDCDE90001D4E9022358
:100760000EF0DCFAC4E9020143463A462846314617
:100770000EF0BAFDCDE90301D4E904230EF0CEFA60
:10078000C4E904014A465346484651460EF0ACFDC2
:10079000CDE90701D4E906230EF0C0FAC4E9060149
:1007A00043463A46484651460EF09EFDD4E908239A
:1007B0000EF0B4FAC4E908013A46434610464146F1
:1007C0000EF092FDD4E90A230EF0A8FAC4E90A015A
:1007D000DDE905012A4633460EF086FDD4E91223F1
:1007E0000EF09CFAC4E91201DDE900014A465346C5
:1007F0000EF07AFDD4E914230EF090FAC4E9140146
:10080000DDE9030143463A460EF06EFDD4E91623B6
:100810000EF084FAC4E91601DDE900012A463346E8
:100820000EF062FDD4E918230EF078FAC4E918013D
:10083000DDE9070153464A46CA461F46CDE9000195
:100840000EF052FDCDE90210D4E91A230EF066FA3B
:10085000C4E91A015D46434646465A465046394663
:100860000EF042FD834633462A4604910EF03CFDCD
:10087000D4E91C230EF052FAC4E91C01DDE90E8311
:1008800099464246314628460EF02EFD42464B46DA
:100890000EF02AFDD4E91E230EF040FAC4E91E0131
:1008A000584652463B4604990EF01EFDD4E92023DB
:1008B0000EF034FAC4E920012A4633461046314688
:1008C0000EF012FD33462A460EF00EFDCDE906016C
:1008D000D4E922230EF022FAC4E9220142464B4613
:1008E000404649460EF000FD834642464B460C9179
:1008F0000EF0FAFC42464B460EF0F6FCD4E92423F7
:100900000EF00CFAC4E92401DDE9021052463B4620
:100910000EF0EAFCD4E926230EF000FAC4E9260121
:10092000DDE9060133462A460EF0DEFCD4E9282331
:100930000EF0F4F9C4E92801584652463B460C999A
:100940000EF0D2FC52463B460EF0CEFCD4E92A23F0
:100950000EF0E4F9C4E92A01584633462A460C99B8
:100960000EF0C2FC33462A460EF0BEFCD4E92C231E
:100970000EF0D4F9C4E92C01DDE9000133462A4622
:100980000EF0B2FC33462A460EF0AEFCD4E92E231C
:100990000EF0C4F9C4E92E0111B03CE52DE9F74F82
:1009A0000446B8B0D4E90C0102460B46CDE9040177
:1009B0000EF09AFCD4E90023CDE90C23D4E930569B
:1009C00007468846284631460EF08EFC43463A4696
:1009D0000EF096FECDE90201D4E90E0102460B4667
:1009E000CDE91A010EF080FCD4E9062307468846BB
:1009F00028463146CDE910230EF076FC43463A46B0
:100A00000EF07EFECDE90001D4E9100102460B464E
:100A1000CDE90E010EF068FCD4E90A2307468846AA
:100A200028463146CDE914230EF05EFC43463A4693
:100A30000EF066FECDE90801DDE91A210B46DDE97D
:100A400004010EF051FCD4E90223074688462846EB
:100A500031460EF049FC43463A460EF051FE3491C1
:100A6000DDE90E2182460B46DDE904010EF03CFC77
:100A7000D4E9042307468846284631460EF034FC64
:100A80003A4643460EF03CFE8946DDE90E21834698
:100A90000B46DDE91A010EF027FCD4E908230746CE
:100AA0008846284631460EF01FFC3A4643460EF073
:100AB00027FE07468846DDE90401DDE914230EF030
:100AC00013FCCDE90A01D4E91623284631460EF07D
:100AD0000BFCCDE91601DDE90401DDE910230EF080
:100AE00003FCCDE91201D4E91423284631460EF067
:100AF000FBFBCDE90601DDE90401DDE90C230EF085
:100B0000F3FBCDE90401D4E91223284631460EF067
:100B1000EBFBDDE904230EF0F3FDDDE906230EF027
:100B2000FDF8DDE912230EF0EBFDDDE916230EF0F2
:100B3000F5F8DDE90A230EF0E3FD4FF0FF320FF088
:100B400064F8CDE92601DDE91A01DDE914230EF090
:100B5000CBFBCDE91601D4E91C23284631460EF023
:100B6000C3FBCDE91201DDE91A01DDE910230EF026
:100B7000BBFBCDE90A01D4E91A23284631460EF021
:100B8000B3FBCDE90601DDE91A01DDE90C230EF026
:100B9000ABFBCDE90401D4E91823284631460EF019
:100BA000A3FBDDE904230EF0ABFDDDE906230EF027
:100BB000B5F8DDE90A230EF0A3FDDDE912230EF0FE
:100BC000ADF8DDE916230EF09BFD4FF0FF320FF07C
:100BD0001CF8CDE90401DDE90E01DDE914230EF076
:100BE00083FBCDE90A01D4E92223284631460EF0E1
:100BF0007BFB0DF1380CCDE906019CE80F000EF0EF
:100C000073FBCDE91001D4E92023284631460EF0CC
:100C10006BFBCDE91201DDE90E01DDE90C230EF0DD
:100C200063FBCDE90C01D4E91E23284631460EF0C2
:100C30005BFBDDE90C230EF063FDDDE912230EF012
:100C40006DF8DDE910230EF05BFDDDE906230EF003
:100C500065F8DDE90A230EF053FD4FF0FF320EF088
:100C6000D4FF37910546DDE90201DDE900230EF0EE
:100C70003BFBDDE908230EF037FBCDE90601DDE99A
:100C800002013A4643460EF02FFB3A4643460EF029
:100C90002BFBCDE90A01DDE900015A464B460EF077
:100CA00023FB5A464B460EF01FFBCDE90C010122F7
:100CB000504634990EF0A9FF5A464B460EF014FBED
:100CC0003A4643460EF010FB06460E91DDE9080158
:100CD0005246349B0EF008FB5246349B0EF004FB48
:100CE00032460E9B0EF00CFDDDE90C230EF016F8DB
:100CF000DDE90A230EF012F8DDE906230EF000FD0F
:100D000000221346CDE90C010EF01CFA7ED03A46C3
:100D10004346504634990EF0E7FA2A46379B0EF0C8
:100D2000E3FACDE90A01DDE908015246349B0EF0F1
:100D3000DBFACDE92310DDE904230EF0D5FACDE985
:100D40000601DDE90001DDE908230EF0CDFADDE959
:100D500026230EF0C9FACDE910013A464346104663
:100D600019460EF0C1FADDE926230EF0BDFACDE9F1
:100D70000E01DDE90423384641460EF0B5FA064679
:100D80001291DDE900012A46379B0EF0ADFA32469A
:100D9000129B0EF0B5FC5A464B460EF0A5FADDE963
:100DA0000E230DF0BBFFDDE910230EF0A9FCDDE9F9
:100DB00006230DF0B3FFDDE90A230EF0A1FCCDE917
:100DC00012015A464B46504634990EF08DFA19914D
:100DD00006462A46379B0EF087FACDE90A01DDE97F
:100DE0002310DDE926230EF07FFACDE90601DDE9C7
:100DF0000201DDE908230EF077FADDE904230EF0A5
:100E000073FA5A464B46CDE90E0100E006E1104662
:100E100019460EF069FADDE904230EF065FACDE912
:100E20000801DDE92623584649460EF05DFACDE972
:100E30001001DDE902012A46379B0EF055FADDE983
:100E400010230EF05DFC3A4643460EF04DFADDE904
:100E500008230DF063FFDDE90E230EF051FCDDE900
:100E600006230DF05BFFDDE90A230EF049FCCDE916
:100E70000E01DDE90423304619990EF035FA0646D5
:100E80000891DDE900015A464B460EF02DFADDE9E6
:100E900026230EF029FACDE90601DDE90201DDE99C
:100EA00000230EF021FA2A46379B0EF01DFACDE9F9
:100EB0000001349B5246104619460EF015FA2A4698
:100EC000379B0EF011FADDE926238B460A90504637
:100ED00034990EF009FA0DF1080C054689469CE894
:100EE0000F000EF001FA2A464B460EF009FC3A4676
:100EF00043460EF0F9F95B460A9A0DF00FFFDDE963
:100F000000230EF0FDFBDDE906230DF007FF32465E
:100F1000089B0EF0F5FB05460E46DDE91201DDE902
:100F20000C230DF0B7FF399A81468A46C2E90001C9
:100F3000DDE90E01DDE90C230DF0ACFF399A07461F
:100F40008846C2E90201DDE90C23284631460DF04E
:100F5000A1FF399A05460E46C2E90401D4E91023DF
:100F60000EF0C2F90291D4E90E2383463846414679
:100F70000EF0BAF9CDE90001D4E90C2348465146F8
:100F80000EF0B2F9DDE900230DF0C8FE5A46029BCF
:100F90000DF0C4FE01220EF038FE83460091D4E924
:100FA0000001D4E906230DF0B9FED4E90A230DF0BF
:100FB000B5FE5A46009B0EF0A3FBD4E930230DF09A
:100FC00069FFCDE900012A463346104619460EF066
:100FD0008BF904468B463A464346104619460EF0B6
:100FE00083F905460E464A465346104619460EF00A
:100FF0007BF92A4633460DF091FE5B4622460DF002
:101000008DFEDDE900230DF089FE0DF071FD3A9AA9
:10101000C2E9000101203BB0BDE8F08F0020FAE7F3
:101020002DE9F34F9DB004461E98D0E90067324683
:101030003B46304639460EF057F9D4E90C939A46B0
:101040004A460EF051F94A4653460EF04DF9054610
:101050008846D4E9300132463B46CDE908010EF01E
:1010600043F932463B46CDE90B010EF03DF9D4E998
:101070000023CDE906230EF037F92A4643460EF049
:101080003FFB0191DDE906238346304639460EF0E9
:101090002BF94A4653460EF027F905468846DDE906
:1010A0000B01D4E912230EF01FF95A46019B0EF0F2
:1010B0004FFA2A4643460DF031FECDE900010122E8
:1010C000304639460EF0A1FD1E9ACDE90201D2E963
:1010D000025398462A460EF007F94A4653460EF048
:1010E00003F9D4E90E23CDE904230EF0FDF883467D
:1010F0000A91DDE9080101220EF087FD32463B46E8
:10110000CDE914010EF0F0F843462A46CDE90F016F
:101110000EF0EAF8D4E902230EF0E6F8DDE9002348
:101120000DF0FCFD5A460A9B0EF0EAFACDE90001EB
:101130004A465346304639460EF0D6F8CDE90D0101
:10114000D4E906B35A460A930EF0CEF806460F4687
:10115000DDE90B01D4E914230EF0C6F8DDE9002324
:101160000EF0F6F932463B460DF0D8FDCDE9000110
:10117000DDE902011E9AD2E904631F4632460EF0F1
:10118000B3F84A4653460EF0AFF8D4E91023CDE940
:1011900002230EF0A9F881468A46DDE90F013B469D
:1011A00032460EF0A1F8D4E904230EF09DF8DDE9F3
:1011B00000230DF0B3FD4A4653460EF0A1FACDE9E7
:1011C0000001DDE90D01D4E90A939A464A460EF082
:1011D0008BF8CDE90E01DDE90B01D4E916230EF001
:1011E00083F8DDE900230EF0B3F9DDE90E230DF0FD
:1011F00095FDCDE90001DDE906016FF001020EF079
:1012000004FDDDE906230EF06FF8CDE90C01DDE900
:1012100008016FF001020EF0F8FCCDE90E01D4E9EF
:1012200024230EF061F8DDE900230DF077FDDDE900
:101230000C230EF065FACDE90001DDE9062328460E
:1012400041460EF051F8DDE904230EF04DF8CDE9EA
:101250001201DDE908012A4643460EF045F8CDE9C2
:101260000B01D4E918230EF03FF8DDE900230EF05E
:101270006FF9DDE912230DF051FDCDE90001DDE943
:1012800006014FF0FF320EF0C0FC5A46CDE91601C0
:101290000A9B0EF029F8CDE91A01DDE908014FF0AB
:1012A000FF320EF0B2FCCDE91101D4E92A230EF091
:1012B0001BF8DDE900230DF031FDDDE91A230EF006
:1012C0001FFACDE90001DDE90623304639460EF06C
:1012D0000BF8DDE902230EF007F8CDE91A01DDE98C
:1012E000080132463B460DF0FFFFCDE90601D4E987
:1012F0001E230DF0F9FFDDE900230EF029F9DDE9E9
:101300001A230DF00BFDCDE90001DDE916014A4677
:1013100053460DF0E9FFCDE90801DDE91101D4E9FB
:101320002C230DF0E1FFDDE900230DF0F7FCDDE9F2
:1013300008230EF0E5F9CDE900012A4643461046A0
:1013400019460DF0D1FFDDE904230DF0CDFFDDE9F5
:1013500004230DF0C9FFCDE91601DDE90B012A4692
:1013600043460DF0C1FF5A460A9B0DF0BDFFDDE973
:1013700000230DF0D3FCDDE916230EF0C1F9CDE911
:1013800000015A46284641460A9B0DF0ADFFDDE9B3
:1013900004230DF0A9FFCDE91601DDE90B01D4E925
:1013A0001A230DF0A1FFDDE900230EF0D1F8DDE9ED
:1013B00016230DF0B3FCCDE9000101222846414679
:1013C0000EF023FC32463B460DF08EFFDDE9042390
:1013D0000DF08AFFDDE902230DF086FFCDE908015B
:1013E000DDE914012A4643460DF07EFF32463B46B6
:1013F0000DF07AFFD4E908230DF076FFDDE9002334
:101400000DF08CFCDDE908230EF07AF9CDE900013E
:10141000DDE90423284641460DF066FF4A4653465F
:101420000DF062FF80460D46DDE90B01D4E91C2377
:101430000DF05AFFDDE900230EF08AF842462B46F4
:101440000DF06CFC054601916FF0010258460A99B7
:101450000EF0DBFB5A460A9B0DF046FF80460091DA
:10146000DDE90E01D4E926230DF03EFF2A46019B5B
:101470000DF054FC4246009B0EF042F980460D46AA
:101480005A46304639460A9B0DF02EFFDDE902230D
:101490000DF02AFFCDE90001DDE90601D4E92023A2
:1014A0000DF022FF42462B460EF052F8DDE90023F4
:1014B0000DF034FC054688464FF0FF3258460A9935
:1014C0000EF0A3FB4A4653460DF00EFF83460091F3
:1014D000DDE91101D4E92E230DF006FF2A4643462B
:1014E0000DF01CFC5A46009B0EF00AF90546884692
:1014F00032463B46104619460DF0F6FEDDE9022362
:101500000DF0F2FEDDE902230DF0EEFE83460091C0
:10151000DDE9060132463B460DF0E6FE4A465346FB
:101520000DF0E2FE2A4643460DF0F8FB5A46009BBA
:101530000EF0E6F8054688464A4653463046394698
:101540000DF0D2FEDDE902230DF0CEFE06460F4679
:10155000DDE90601D4E922230DF0C6FE2A46434602
:101560000DF0F6FF32463B460DF0D8FB07468846A5
:101570006FF00102484651460EF047FB4A4653467B
:101580000DF0B2FE06460D46DDE90E01D4E9282332
:101590000DF0AAFE3A4643460DF0C0FB1FB032469E
:1015A0002B46BDE8F04F0EF0ABB830B50446B0F8AE
:1015B0008C0089B000040690B4F88E000D4600043B
:1015C0000790B4F8900088340004089002A80AF04C
:1015D00043FB029906982B46401A069003990798F8
:1015E00006AA401A079004990898401A0890208883
:1015F000616A80B20AF080F909B030BD2DE9F04788
:1016000086B00D466946FFF7D0FF002637463446C0
:10161000E9466FF00F0A0DF10C0859F824000EF09E
:10162000AFF951460EF01FFB48F8240001460EF0BA
:10163000FDF90EF04FF932463B460DF06FFB641C8E
:1016400006460F46032CE8DB0DF052FA06460F461D
:10165000002458F824000EF03DF932463B460DF0C8
:1016600019FC0DF029FB55F824100EF05EF945F831
:101670002400641C032CECDB686D401C68650AF0D8
:10168000DBFDE86706B0BDE8F0872DE9F0410446D0
:101690000AF08CFB40BB0AF00DFB042824D0FE4965
:1016A00020460E46FFF7AAFFFC4DD5E95C018142BA
:1016B00005DB304603F0FDF90020C5F87401208EEB
:1016C0004FF00406C00515D504F118000AF060FBC0
:1016D0008009B0F5C87F0AD2D5F8B800002850DDDF
:1016E000401EC5F8B8004AE00120BDE8F081C5F809
:1016F000B86044E0D4F8A010D5F81401081A01D459
:10170000034600E04342E44A4FF4A02C583A6345B4
:1017100005DDD4E929035365C2E913102FE0031254
:10172000D4F8A470D5F818015B43381A01D4864662
:1017300001E0C0F1000EE64505DDD4F8A800D16453
:10174000C2E914701BE0001200FB0033D4F8A800BB
:10175000D5F81C11401A01D4014600E04142614510
:101760000DDC001200FB0030B0F5403FB4DBA034CC
:10177000C5F8B86094E80B004C3282E80B000020FA
:10178000B3E70220B1E72DE9F04F93B0C34CD0E9A5
:101790000023D4F8A81004EBC101C1E90023D4F858
:1017A000A810491CC4F8A810D0E9022304EBC10119
:1017B000C1E90023D4F8A810491CC4F8A810D0E946
:1017C000042304EBC100C0E90023D4F8A800401CA6
:1017D000C4F8A800152802DB0020C4F8A8001822CD
:1017E000AE490CA803F055FE1822AC4904A803F03A
:1017F00050FE01260DF130090DF1100AA346002418
:1018000006EB460808EB04010BEBC10509EBC40726
:10181000D5E90023D7E900010DF064FE03D2D5E934
:101820000001C7E90001D5E900230AEBC407D7E9A5
:1018300000010DF01DFD03D2D5E90001C7E900014B
:10184000641C032CDEDB761C072ED8DBDDE90401EB
:10185000DDE90C230DF054FF05460C46DDE90601D9
:10186000DDE90E230DF04CFF2A4623460DF000FD66
:1018700002D22846214605E0DDE90601DDE90E2316
:101880000DF03EFF05460C46DDE90801DDE91023B9
:101890000DF036FF2A4623460DF0EAFC04D213B0C1
:1018A00028462146BDE8F08FDDE90801DDE9102377
:1018B00013B0BDE8F04F0DF023BF2DE9F0419CB00F
:1018C000064600240E945520CDE90F401190744D2A
:1018D0000AA80AF08BF912A90AA80AF0B6FD16AAFE
:1018E0000EA912A80AF0D4FD6A460AA916A80AF0A1
:1018F000CFFD01986B4F00F596700190029800F5AE
:1019000096700290039800F5967003903846FEF7A3
:1019100007FE0EF02EF80199084401903846FEF7B4
:10192000FFFD0EF026F80299084402903846FEF7B3
:10193000F7FD0EF01EF8039908440390304601A904
:10194000FEF7B3FED6E930010022574B0DF0CAFD79
:1019500035D21AAA04A93046FFF720F878B3DFF889
:101960004C81DDE90801002243460DF0C9FE024624
:101970000B460DF0B9FC06460F46DDE906010022D4
:1019800043460DF0BDFE02460B460DF0ADFC04468D
:101990000D46DDE90401002243460DF0B1FE02468A
:1019A0000B460DF0A1FC22462B460DF0B7F932464E
:1019B0003B460DF0B3F90DF09BF804460D461CB004
:1019C00020462946BDE8F0410022394B0DF062BAAD
:1019D00010B5E821374803F0F5FD3048364920F8C6
:1019E000BC1F4A0CC280C1818282818342842B4801
:1019F000E821E83803F0E6FD28490020C1F8B400EA
:101A000010BD2DE9F04F254F0446C5B0006BC7F857
:101A1000A0012046FFF739FE00287DD1D7F89411A8
:101A200007F1BC003D90012911D1B4F98C00409020
:101A3000B4F98E004190B4F99000429040A91D483D
:101A4000FEF733FE04F18C013D9800F023FBD7F83C
:101A50000801002802DD401EC7F8080115480022D1
:101A6000E8381346D0E9305128460DF03BFD7CD2D2
:101A70001049E822E839684603F00BFD0D4840A9FB
:101A8000E838FEF712FE0B493EAA2039A1F1C80042
:101A90004391FEF783FF11E0680B0020480A002005
:101AA00000408F40000028410000344000C07240D8
:101AB00000000840780800200080FFFF002866D062
:101AC000FE484399FFF7ACFAD7E9402305460E4696
:101AD000E0370DF015FEDFF8E4B380468946DBE918
:101AE00030010022F64B0DF00BFE02460B4640463D
:101AF00049460DF0CFF90CF0FBFFDBE9308B814656
:101B00008A460022EE4B404659460DF0F9FD42460A
:101B10005B460DF0E9FB00E0C1E080468B46012208
:101B2000284631460EF071F842465B460DF0B2F998
:101B30000CF0DEFFB8680DF0CDFE77E838230DF02D
:101B4000D3FB4A4653460DF093FB03D3D7F8080165
:101B5000002822DDE8226946D84803F09AFCD7F82D
:101B6000E800E0370DF0B6FE00E00FE077E838233C
:101B70000DF0BAFB4A4653460DF07AFB4CD24FF4B7
:101B8000FA7001F07BFD0A20C7F8080144E0E82262
:101B90006946CA4803F07DFC3EE0D7F89801012869
:101BA0003AD1D7F8B400401CC7F8B40000200BF0BD
:101BB000E1F8DFF808831022D8E932010EF025F8A9
:101BC0000DF0FCFA3A90D8E9340110220EF01DF81D
:101BD0000DF0F4FA3B90D8E9360110220EF015F81A
:101BE0000DF0ECFA3C9003213AA80BF027F8D8E965
:101BF00030010022B34B0DF075FC0BD2B24A4146C6
:101C000013460846FEF7BEFC40464399FFF708FA24
:101C100005460E46C7E94056208EC00509D5B4F8E2
:101C20007400C00505D5A948FFF747FE05460E46D6
:101C300001E0A74E0025A1480022E830A54BD0E9DD
:101C4000301C084661460DF013FB28D39F493EAA7D
:101C50002039A1F1C8000291FEF7A0FE00287DD036
:101C6000D4F8AC000DF0D9FA02460B469A489B49CD
:101C70000DF010F9804689460298FFF784FD8246F0
:101C80008B4642464B460DF02DFC09D20022944B68
:101C9000284631460DF0ECFA02D2FFF799FE8EE1AC
:101CA00042464B46504659460DF0E2FA7ED200229B
:101CB0008C4B284631460DF0DBFAF7D27F4E0022DE
:101CC000E836894BD6E930010DF00CFCEED2DFF896
:101CD000ECB100221346DBE930010DF033FA72D18A
:101CE00030460299FFF79CF9B84607F58077B14670
:101CF00003C7D6F8C060D9F8C47004460D46002268
:101D00006F4B304639460DF0FBFC32463B460DF03A
:101D1000EBFA06460F460122294620460DF075FFD4
:101D200032463B460DF0B6F80CF0E2FE04460D4696
:101D3000D8F8E8000DF0CEFDD8E938230DF0D4FA3C
:101D400022462B460DF094FAA7D33DAC029994E8B5
:101D50000D00FEF7E3FA02289FD000E030E10028F2
:101D60009DD1D8F89801012899D100200BF002F8F4
:101D70004C461022F4E932010DF047FF0DF01EFA37
:101D80003A90D4E9020110220DF03FFF0DF016FA4F
:101D90003B90D4E9040110220DF037FF0DF00EFA4C
:101DA0003C9003213AA80AF049FF01E0FDE00AE077
:101DB00001200AF073FF192003900490059003A8F6
:101DC0000AF062FFE8E0B946D7F8B4000DF025FA52
:101DD000D6E930230DF05EF8444A454B0DF082FB06
:101DE000B2D336480299E830FFF71AF9B246D6F86E
:101DF000C060DAF8C47080460D460022304B304691
:101E000039460DF07DFC32463B460DF06DFA064634
:101E10000F460122404629460DF0F7FE32463B466A
:101E20000DF038F80CF064FE06460F46D9F8E800CD
:101E30000DF050FDD9E938230DF056FA32463B46F5
:101E40000DF016FACCD33DAE029996E80D00FEF7E0
:101E500065FA00287ED15F465646D7E93623D6E993
:101E60003601C836C8370DF04BFC02460B460DF064
:101E70003BFAD7E9022382468B46D6E902010DF0F0
:101E80003FFC02460B460DF02FFACDE90001D7E9E1
:101E9000002376E832010DF033FC02460B460DF0CC
:101EA00023FADDE900230CF039FF52465B460CF0C3
:101EB00035FF0CF01DFE07468A461BE09007002008
:101EC0000000F03F00409F406666E63E600900204B
:101ED00000000840000034409A9999999999A941C5
:101EE0000000F83F0000104000003E400AD7A370F9
:101EF0003D0AE73FD4F8AC000DF08FF93A4653465F
:101F00000DF0F2F96FF01D020DF07FFE04460F4652
:101F100000228D4B0DF0E6FA15D300228B4B2046A4
:101F200039460DF0DFFABFF4B8AED9F8B4000DF0C1
:101F300074F9D6E930230CF0ADFF4FF03332844B07
:101F40000DF096F9EFD2D9F898014C4601287FF4AC
:101F5000A4AE00E033E000200AF00CFFC4E94085A5
:101F6000F6E9320110220DF050FE0DF027F93A90FB
:101F7000D6E9020110220DF048FE0DF01FF93B904A
:101F8000D6E9040110220DF040FE0DF017F93C9047
:101F900003213AA80AF052FE6E494FF07E53002208
:101FA000A1F1E800FEF7EEFA77E66A4800226A4BF4
:101FB000D0E93014084621460DF094FAF4D30020FD
:101FC00045B06FE470B5654C0546D4F80C0110B906
:101FD000284600F08AF8D5F8B01044F62060814217
:101FE0000ADAD4F8102111448142C4F810114FF0DC
:101FF000000005DBC4F810012846BDE8704000E58C
:1020000070BD04224FF4C871AFF247000AF07EBCE5
:10201000AFF24F000BF01CB84E4810B5E821E8387D
:1020200003F0D0FAFFF7D4FC4FF4D4714B4803F01F
:10203000C9FA4A4C4FF07E50C4F8E80004F590709D
:1020400004F5887402F09FFC0A2020664FF082405D
:10205000E0641E20E0664248A0674248606742484C
:10206000E067002010BD10B5FFF7D6FF002805D1AE
:10207000AFF27100BDE810400AF00CBD10BD10B504
:10208000AFF2BF000AF0E4FFAFF28900BDE81040F4
:102090000BF010B830B50022C2EBC20331F9124088
:1020A00030F91350AC420ADD02EB42040D8820F8EF
:1020B000245000EB84044D8865808D88A58000EB5A
:1020C000430331F91240B3F906309C4209DA02EBBE
:1020D000420300EB83030C88DC804C881C818C88D5
:1020E0005C81521C032AD7DB30BD70B51B4DD0F884
:1020F000AC200446EAB1D3170020192102F0A3FF57
:1021000045F8AC0F54F8AC2F0020D317052102F08E
:102110009AFF686022680020D317962102F093FF8F
:102120000DF07BF8C5E90D01AC3D0120C5F80C01AF
:1021300070BD6FF00040C5F8AC00C5F8B0000B49A9
:102140008005C5E93801F0E70000104000000440B8
:102150003333C33F7808002000409F40480A0020E6
:10216000CDCCCC3E3333333F9A99193FFFFFDF414B
:1021700010B5F949C4074FF040434FF0804205D0F5
:102180008B66CB66C1E91C328A67CA67840709D5AA
:10219000C1F80031C1F80431C1E94232C1F810215F
:1021A000C1F81421400709D5C1F89831C1F89C3114
:1021B000C1E96832C1F8A821C1F8AC2110BD2DE9F0
:1021C000F14F82B0002102988A468946806F00282C
:1021D0007DD000220020401C0428FCDB02984FF038
:1021E000000C00EBC203D3E90010A1FB0167D3E9A7
:1021F000065400FB017701FB0077CDE90067A64696
:10220000AE1B64EB0704AB460327A6FB075804FB91
:10221000078406FB0C44DDE90067AD197C41A5FB92
:10222000016704FB017405FB0045D3E90C47341B2F
:1022300065EB0705CDE900455D46A5FB0567032471
:10224000A6FB04580EFB0B770BFB0E7707FB0484F1
:1022500006FB0C44D3E91263761B63EB04034C18B2
:10226000A4FB017C40EB000505FB01C504FB005508
:10227000A7FB014C05FB01C507FB0055A4FB017C36
:1022800005FB01C504FB0054F6196341DDE9004577
:10229000AD0045EA9475A400A4FB017C05FB01C1D7
:1022A00004FB0014F01B73EB040103D50023404230
:1022B00063EB0101BAEB000479EB010301DA82461A
:1022C0008946521C032A85DB5046494600E010E04F
:1022D0000DF060FBA149896B0DF042FB0DF01CFC79
:1022E0009D4AD2F80C2203B09200BDE8F04F02F0F4
:1022F00097BE002003B00146BDE8F08F2DE9F14FF5
:102300000020009A0146926FF2B300240022521C72
:10231000042AFCDB009A02EBC405AA46D5E9002991
:10232000A2FB023CD5E906769E46FB1A0325A3FBD9
:10233000057809FB02CC02FB09CB66EB0B0606FB1A
:1023400005854FF0000C03FB0C5617EB0E03A3FBA7
:10235000027C46EB0B0606FB02C203FB0923DAE90B
:102360000C25BA1AAB4103D50025524265EB030395
:10237000851A71EB030501DA10461946641C032C1B
:10238000C4DB0DF007FB00E00EE07449896B0DF033
:10239000E7FA0DF0C1FB704AD2F80C22BDE8F84F05
:1023A00002EB420202F03CBE00200146BDE8F88F7D
:1023B0002DE9FE43684D80460024D5F810626F4633
:1023C00005EBC4013246D1E9020102F016FE05EB2D
:1023D0008401B1F884100904401847F8240004F17E
:1023E0000104032CECDB5C489821083003F0EAF888
:1023F0000120FFF7BDFE95F8E8010199042807D1F7
:10240000D5F81802B0F5201F02DD052085F8E80197
:10241000524C0098636AC11A01D40E4600E01E1A9D
:102420000198A26A801A01D4074601E0019FD71BD8
:10243000BE4206DD002901D4084606E00098181ABD
:1024400003E0002801D50198101A029AE16A521A95
:1024500001D4134601E0029BCB1A834205DB002A1C
:1024600001D4104601E00298081AD8F8241009F0A7
:10247000A4FFD5F81812814206DD032168460AF050
:102480000FFD02200AF074FD009860620198A062BE
:102490000298E062BDE8FE83304AC2E9020170475B
:1024A0002E4AC2E9060170472C4AC2E9040170476E
:1024B000294AD2F8E0310360D2E97402C1E900028E
:1024C0007047254AD2F8E0310360D2E97602C1E9CB
:1024D000000270472DE9FE4781460020EA468A6FD8
:1024E00022B901EB800339F91020DA6701EB800291
:1024F00039F91030D46F1D1B4AF82050136E9D42DD
:1025000000DD1566D36E9D4200DAD56601230024F6
:1025100022464FEAE578A3FB056704FB057403FB3D
:102520000844334602EB420601EBC60606EBC00C3C
:10253000DCE90076FF186641CCE90076521C042ADB
:10254000E9DB401C0328CADB886F401C8867012038
:10255000C1F89000BDE8FE87F00B0020500E00206F
:1025600030B5002302EB830550F823405B1CEC667A
:10257000032BF7DBC2F88810916F79B1002102EBD1
:10258000810450F82130E56F5B1B00D55B42256E5E
:102590009D4200DA2366491C0329F0DB906F401C42
:1025A00090670120C2F8900030BD10B500210B46A5
:1025B00000EB8102491CD46ED46713660329F7DB54
:1025C000D0F8881040F8783FC0E9051310BDD0E975
:1025D0002210081A70470146D1E91802824200DB36
:1025E0001046896E814200DB084670472DE9F047AE
:1025F0008046501E012686408946C2F1200740468B
:1026000002F00EFD04460D46404649463A4602F0A9
:10261000F4FC3A4602F004FDB04203DD641C45F1CF
:10262000000505E07142884202DA641E45F1FF357B
:1026300020462946BDE8F087F74900200862486235
:102640008862C862086448648864C8640863486330
:102650008863C863086548658865C865704730B594
:10266000EE4AD2F8483223B1D2E990542D1A8C4167
:1026700001DAC2E990015B1CC2F8483230BD30B5C6
:10268000E64AD2F8583223B1D2E994542D1A8C413B
:1026900001DAC2E994015B1CC2F8583230BD30B592
:1026A000DE4AD2F828322BB1D2E98845041B71EBFF
:1026B000050401DAC2E988015B1CC2F8283230BD8A
:1026C00030B5D64AD2F838322BB1D2E98C45041B4A
:1026D00071EB050401DAC2E98C015B1CC2F83832E7
:1026E00030BD2DE9F0470246CC4801250830804630
:1026F000C36E016E046FC91A436E1B1B8B4200DB55
:102700001946836ED8F87400181A884200DB014617
:10271000C14F6037F86B884204DA002400F00AFAEF
:10272000204687E7108E0124BC4EC0054FF0000103
:102730000ED5D6F880303068834209DBB2F87420B9
:10274000D20506D5D6F8B021824201DB052400E08F
:102750000C4674B3600719D5AF48C8388146FFF7F7
:102760002EFD000D40EA01300915C6E97601D7E9D2
:1027700004321B1A8A4102DA0025FFF7A1FF9821D3
:10278000484602F01FFF0420FFF7F2FCE0070ED0DE
:102790004046FFF714FDC6E97C01D7E9063402463E
:1027A000181A8C4103DA00251046FFF778FF2846F7
:1027B00040E7FFE702203DE71EB5044690F83000F1
:1027C000C0F38110032804D19449201D0831FFF77C
:1027D00081FE94F87400C0F38110032805D18E495E
:1027E00004F14800C839FFF775FED4F8B8008B4AE9
:1027F000C0F38113A0326946032B0FD0C0F3411000
:1028000003281AD1002004EB8003D3F8A0309B13D7
:1028100041F82030401C0328F5DB09E0002004EBE0
:102820004003B3F98C3041F82030401C0328F6DB1C
:102830006846D4F8C010FFF793FE1EBD2DE9F0479F
:1028400005460020296BCA0567D501F050014029D3
:1028500000D1012095F8741001F05001402900D1F9
:10286000012095F8B8106D4C01F05001402900D0BE
:1028700030B100F05FF90020C4F8E00184F8E8010D
:10288000654ED4F80812E86A6036814225D0C4F853
:1028900008020A28306B0ADA40002060716B491C7C
:1028A000C4F80C120DF06CF80CF059F904E020603B
:1028B000706BC4F80C02B06BC4F81402D4F80C02AC
:1028C000C0F11000C4F810024FF48040C4F81802A0
:1028D00096F8341019208840F0632846FFF76CFF03
:1028E00094F8E811DFF8349105274FF0020809F158
:1028F000A009072911D2DFE801F0041127305E7E1C
:102900008500D4F8E001411CC4F8E0110A2804DB7A
:1029100000F010F9012084F8E80186E0D4F898006E
:10292000012810D12846FFF7DCFE10B1012803D0A2
:1029300004E084F8E87101E084F8E8814846FFF794
:1029400034FEFFF779FE70E0032084F8E8012846A2
:10295000FFF72EFD00F0EEF867E02846FFF7C1FE16
:10296000F0B3012861D1B5F8B8004FF00403C005F9
:1029700015D54846FFF72FFE0146C017C4E974106D
:10298000D6E902C2BCEB0101824102DA84F8E871A7
:1029900008E04846FFF71BFE316A884202D384F8FC
:1029A000E83124E0F4E97601FFF769FED4E9060195
:1029B000FFF755FE39E0B5F8B800C0050BD548461D
:1029C000FFF709FE0146C017C4E97410D6E90232C8
:1029D000591A824108DB2846FFF783FE00B100E068
:1029E00002E0012803D020E084F8E8711DE02846C9
:1029F000FFF7DEFCD6E7062084F8E80101200AF0A4
:102A0000B7FA0DE02846FFF76CFE012801D038B177
:102A10000BE084F8E88108E0F00D0020F00B0020C6
:102A200000F088F84846FFF7C0FD002002E610B528
:102A300000214010002802D001F10101F9DC454CD1
:102A40004FF0010001F1010100FA01F0C4E90C01AD
:102A50000CF096FF0CF083F8A06394F83410192062
:102A60008840E06310BD10B54FF418713A4802F089
:102A7000A9FD4021374802F0A5FD0720FFF778FBAC
:102A8000344840F2DC510022C0E906121421C0E9AA
:102A900002124FF41671C0E9041230492E4C016243
:102AA0000120C4F8E4011920FFF7C1FF0020C4F899
:102AB000080210BD10B54FF41871274802F082FDCE
:102AC0000720FFF755FB244801210022C0F8E4113C
:102AD00080F8E811032101200AF03CFA0722642162
:102AE000AFF2A720BDE8104009F010BF10B50120DB
:102AF0000AF03EFAAFF2BB20BDE810400AF0A8BAD7
:102B000010B5FFF7B0FF002805D1AFF25700BDE8C0
:102B1000104009F0BFBF10BD10B5FFF7E7FFAFF2DF
:102B20006B00BDE810400AF0C5BA0B49D1E97C0141
:102B300070477047084810B59821083002F042FDF0
:102B40009821074802F03EFDBDE810400520FFF740
:102B50000FBB0000500E0020F00B00200008AF2F2C
:102B6000280D00202DE9FC5F0D460026416B99469B
:102B70009246B046002904DBD0F8BC00032800D1FF
:102B80000126FF492422081F02F0B5FCFC4FC03F7C
:102B90000024C7F8E05007EB8400D0F8BC10404692
:102BA0000CF0C3FE641C80460A2CF4DBF5490CF0E3
:102BB000D7FEF54C80464FF0C80BC7F8E400BAF1D9
:102BC000320F21DB4846C7F81CB10CF0D9FE00904B
:102BD0000190EE4928460CF0C3FE01990CF026FF47
:102BE00021460CF0BDFE0446BAF57A7F33DBE84996
:102BF0002846009C0CF0B4FE21460CF017FFE24979
:102C00000CF0AEFE044626E041F2883199FBF1F06B
:102C10004042D7F81C1100EB80004018C7F81C0197
:102C200002D50020C7F81C0148460CF0A9FE8246D8
:102C3000D84928460CF094FE51460CF0F7FE214688
:102C40000CF08EFE0446D7F81C0120B9D7F82801F5
:102C5000012800D10024D7F8200100B12C46CE492C
:102C6000894500D12C4614F0FF4F11D04046C7F8DB
:102C7000E88041460CF047FF20F00040C7490CF0C7
:102C80002EFF22D2D7F8B80010F0FF4F03D01CE07F
:102C9000D7F8E800EDE7C6B14846C7F81CB10CF01C
:102CA000BCFA04460E4628460CF014FE0022BC4B2B
:102CB0000CF0F0F8224633460CF016FB0022B94B1C
:102CC0000CF0E8F80BF0F8FF04462046BDE8FC9F46
:102CD0002DE9F04FABB04FF0000AA94FCDF810A08E
:102CE000C03FCDF814A0CDF818A00446D7F82011A5
:102CF000022003297DD0002620AD07EB8600D0F806
:102D0000A8000CF03DFE6FF01D010CF0ACFF45F883
:102D10002600761C042EF0DB0FA808F067FF24A81D
:102D200008F0CEFF964B24AA183B0FA92046279304
:102D300000F0F4F9064604F1180009F029F88209B8
:102D40009548D7F83031834200DB034631462046B0
:102D5000FFF708FFBB4607F1B806D7F8EC100CF0F8
:102D600065FE30600BA808F041FF13A90BA809F01D
:102D700060FD83480FAA3C300BA9064609F088FB8A
:102D800031460BA809F061FB00210DF13C080DF163
:102D90004C090DF1100E00221346104601EB410CB8
:102DA0000CEB000759F8276008EB8007401C7F6890
:102DB0000328C6FB0723F3DB900F40EA83004EF89D
:102DC0002100491C0329E6DBDBF820015F460028CF
:102DD0007DD05046CDF818A040420CF0D1FD6FF0E8
:102DE0001D0949460CF03FFF06F04EFFD0465646FF
:102DF00000E074E0CDE9000A0698CDF808A0404252
:102E00000CF0BEFD49460CF02EFF0BF069FE03905E
:102E1000D7F8300141F2883190FBF1F04FF0804A51
:102E20000CF0AEFD2890299006980CF0A9FDDFF873
:102E300078B159460CF094FD29990CF091FD51465A
:102E40000CF08EFD0CF095FD40000690DDF8A0A082
:102E50000CF096FD59460CF0E9FD51460CF0E6FDEC
:102E60000CF087FD06900CF08BFD49460CF0FBFE44
:102E700006F00AFFCDE90706099606980CF080FDDA
:102E800049460CF0F0FE0BF02BFE0A901CAA694696
:102E900020A809F056FB6A4607A91CA809F051FBB7
:102EA000D4F8BC00EA46002810DD00261E215AF89E
:102EB000260045F826000CF0D6FE0CF05AFD07EB74
:102EC0008601761CC1F8A800042EEFDB00E00BE0C1
:102ED000D4F8BC004FF0FF3503280AD106E0C7F84C
:102EE00020012BB0BDE8F08F069875E700F067FE73
:102EF000F0B357F8A80F0CF043FD4E4649460CF0CE
:102F0000B2FE1C9078680CF03BFD31460CF0ABFE35
:102F10001D90B8680CF034FD31460CF0A4FE1E90F4
:102F2000F8680CF02DFD31460CF09DFE1F90B86F37
:102F3000A83F0028D5D0D7F8B8002946A8370CF00C
:102F400092FE06F0A1FE1E210CF08DFE0CF011FD8C
:102F5000C7E90008C7F80880294638690CF083FEE5
:102F60000BF0BEFD1E210CF07EFE0CF002FD00E019
:102F70001CE0F860D4F8C010A83F279844E0000097
:102F8000500F00200000204100409C4500004843B5
:102F9000000048420000C84340420F000E2DB23DE1
:102FA000000079400088B340E10237472946D7F84E
:102FB000B8000CF058FE06F067FECDE90708CDF822
:102FC00024802946D7F8B8000CF04DFE0BF088FDA0
:102FD0000A906A4607A920A809F0B3FA684609F0E2
:102FE0006DFB002556461E2156F825000CF03BFED1
:102FF0000CF0BFFC07EB85016D1CC1F8A800042D87
:10300000F1DBD4F8C010279809F04EFED7F8200164
:1030100000288FD0401E62E770B590F8B810664A5D
:10302000CC064FF000034FF0030101D4C2E948136E
:10303000B0F82041E40509D4048EE40503D5B0F8C6
:103040007440E40502D4C2E948131AE0D2F83411FE
:1030500039B1D0E93013C91A4FF47A73B1FBF3F1E7
:1030600005E0D0F8B01044F62064A14202DBC2F8BB
:1030700030110AE0D2F82C512944C2F82C11A14297
:1030800001DA002070BDC2E94B31FFF721FEF8E7FD
:1030900010B54FF49C71484802F094FA464C4FF03A
:1030A00080400021C4F8FC0044F8A80F4248A83032
:1030B00009F0FAFD4FF47A7060674FF07E5060645B
:1030C00010BD3D49C1F8EC00002070473A49C1F8F5
:1030D0002801002070473849C1F8340100207047AA
:1030E00004224FF41671AFF2CF0009F00FBCAFF21B
:1030F000D70009F0ADBF10B5FFF7CAFF2E49002079
:10310000C1F82801C1F83401AFF22B00BDE810402E
:1031100009F0C0BCAFF2370009F0CCBF2DE9FF4782
:103120000C4625491546074699463C220C31224853
:1031300002F0E1F9204950225831A1F1100002F0CB
:10314000DAF91D4E95E8070006F13C031B4D83E8B4
:1031500007001ECC06F1980080E81E00D6F8240176
:10316000401CC6F82401062802DD0620C6F824010A
:10317000C0F1060407F1A00818E006EB04116A4646
:103180004846483109F084F904EB440006EB80011D
:103190006A46404608F058FB074625F0004120F0FB
:1031A00000400CF02BFC00D23D46641C062CE4DBF6
:1031B00004B02846BDE8F087900E00200024744932
:1031C0001FB501461022684602F01EF9F6489DE838
:1031D0000E0080E80E00F5499DF80C0081F8B00162
:1031E000002004B010BD1FB5EF490EC98DE80E00D8
:1031F000EE49102291F8B0118DF80C10694602F0DA
:1032000003F90020EDE72DE9F04F91B000251821DA
:10321000684602F0D7F90024182106A802F0D2F976
:10322000E249A046C14691F8C00101287ED1D1F8FB
:10323000B8B1D1F8B4A10022C2EBC20000EB40014A
:10324000DA4800EB810E9EF850000F90002863D002
:1032500000215EE05EF82130DDE900676D1CD817C3
:103260000E939B197841CDE900300EEB8100EDB251
:1032700043690D93DDE9027CDE17DB1946EB0C0692
:10328000CDE90236836ADDE9047CDE170C93DB1995
:1032900046EB0C06CDE90436C06B0E9BDDE9067CDF
:1032A00083FB0063360C46EA0346F6194CEB2343D6
:1032B000CDE906630D9BDDE9087C83FB00634FEAE3
:1032C000164646EA0346F6194CEB2343CDE908635C
:1032D0000C9BDDE90A7C83FB00634FEA164646EA55
:1032E0000346F6194CEB2343CDE90A6380FB0063E8
:1032F0004FEA164646EA034616EB080849EB23490F
:103300000444584501DA834602E0504500DD824618
:10331000491C0F9888429DDC521C052A8CDBA3486F
:10332000AAEB0B01D0F8BC01814200E053E052DB74
:10333000A5FB0872E01700260F9006FB082005FB8E
:1033400009000E9084FB0410090C41EA00410014AE
:10335000CDE90C0106A800EBC601D1E90002A0FBF3
:1033600005BC02FB05C2002100FB012C684600EBF6
:10337000C601D1E90002A0FB043802FB04820F99C8
:1033800000FB0120190C0CAA41EA00494FEA204A2F
:1033900092E80B0087EA010283EA000852EA080279
:1033A00012D07A1A63EB0003BBEB09006CEB0A0C3A
:1033B0004FEA0C4141EA1041000401F044FE7B4910
:1033C00001EB8601C1F8A401761C032EC2DB77480D
:1033D000012180F8B01111B00020BDE8F08FF8B5E0
:1033E000724D0E460446D5E96D01091A052291FB7E
:1033F000F2F1301A90FBF1F0C0B28DF80000042811
:1034000001D92020F8BDC0EBC00000EB400005EB67
:10341000800191F85000052816D0421C81F85020F8
:103420009DF80010C1EBC10101EB410105EB8102E8
:1034300002EB8001CE63236842F820306068486167
:10344000A06888620020F8BD01F14003181F102217
:10345000194602F050F89DF800001022C0EBC000A1
:1034600000EB400005EB8000011D02F044F89DF8E0
:1034700000001022C0EBC00000EB400005EB800014
:1034800000F11801143002F036F89DF80000102207
:10349000C0EBC00000EB400005EB800000F12C0108
:1034A000283002F028F80420BAE730B585B0044689
:1034B00003A9684608F042FC04A808F007FD0228AA
:1034C0002BD0D4F8E4000399401A384991F8B02180
:1034D00012B308B3D1F8A421009C80FB023215047A
:1034E00045EA134222440092D1F8A821019C80FBB6
:1034F0000232150445EA134222440192D1F8AC117C
:10350000029A80FB0110030443EA11401044029028
:103510000321684609F0C4FC0CE0606B032809D164
:1035200008F01EFC30B168460399FFF758FF08B950
:10353000FFF769FE05B0002030BD10B54FF4E27111
:103540001A4802F03FF819481949C0F8B4114FF46D
:10355000AA01C0F8B8114FF4A021C0F8BC11012194
:1035600080F8C011002010BD1049C1F8B80100203A
:1035700070470E49C1F8B401002070470B49C1F8EB
:10358000BC010020704758B10849D1F8A42102605D
:10359000D1F8A8214260D1F8AC11816000207047B9
:1035A00005207047242070476C110020C80F0020B0
:1035B0000000D8FF20B12D4981F8C00100207047DC
:1035C00024207047294B93F8B101002818D0D3E983
:1035D0006D10401A052190FBF1F00020C0EBC001F6
:1035E00001EB410103EB810191F8502022B1002150
:1035F00000E0491C8A42FCDC401C0528EEDB002070
:103600007047082296211A4809F080B9184809F035
:103610001FBD10B5FFF791FF4FF49A7310221549A3
:10362000154809F0EFF920B9AFF2290009F032FA94
:1036300008B1012010BD0D49012081F8B101002021
:1036400010BD10B5094C94F8B101002808D0084805
:1036500009F0FEFCAFF2550009F02CFD08B1012085
:1036600010BD002084F8B10110BD0000C80F00207B
:10367000AB340008E7310008C1310008002803DD41
:10368000FE490122C1E920020020704710B5B8218F
:10369000FA4801F097FFF948F949C160F94981609A
:1036A000F9490160F94941604FF0804141664FF4AA
:1036B000FA61C167F649C0F89C10002010BD2DE9E1
:1036C000F041EE4C0E460746002521680CF007FA43
:1036D00011D3384661680CF091F90CD320690128A8
:1036E00013D13046E1680CF0FAF904D33046A168F2
:1036F0000CF084F909D2606F20B9E048A16D183050
:1037000009F0D2FA0120C4E91D05D4E91E0188425E
:1037100004DB606F012800D1E5656567BDE8F081D5
:1037200070B50C46054608F06DFAD44A002110B970
:10373000D848854202DD1161516102E0106900281C
:1037400008D1506920445061B0F5FA7F02DD0120B4
:10375000C2E9040170BDF0B58DB00D4614460646B1
:10376000694609F066F809AA3146284608F090FE35
:103770002946304608F069FE0021EC460DF1240E82
:1037800000231A46184601EB41073D180EEB800650
:103790005CF825507668401CC5FB06320328F4DB34
:1037A000980F40EA820044F82100491C0329E7DB16
:1037B0000DB0F0BDB1490020C1F88C00704770B564
:1037C000044680680CF0DCF801460CF02FF9054641
:1037D00060680CF0D5F801460CF028F90646206820
:1037E0000CF0CEF801460CF021F931460CF09DF8B2
:1037F00029460CF09AF80BF0B2F9BDE870406FF072
:103800000F010CF030BA70B50E4600259B4C01211B
:1038100030B101280CD0C4F8981044F88C5F29E02E
:10382000C4F8A060C4E92965E4E92415A56070BD69
:103830003046D4F8A0100CF066F920F00040D4F81F
:103840009C100CF0DBF813D254F8945F31466D1CD9
:10385000256020690CF069F82061943C312DE6DD8B
:10386000022144F8901F8C490CF07AF8A06170BDD9
:1038700044F8905F656070BD2DE9FF4F8BB0002666
:103880007E4C0546039604960596D4F88800934628
:10389000374600287ED008F073FA10B103A808F06C
:1038A0003FFAD4F88000A146002819DD01204C46DB
:1038B000C9F8840008F064FA48B103A808F068FA6F
:1038C0008009B0F5C87F02D2D4F8800004E0D4F8B3
:1038D0008000401BC4F88000002801DCC4F884701C
:1038E00008F0AAFC002855D000240E9850F82400B7
:1038F0000CF046F882465BF824000CF041F86FF0BB
:103900000F0841460CF0AFF951460CF08FF84146D4
:103910000CF0A9F931460CF008F8641C0646032C9B
:10392000E3DB5846FFF74BFF0146069030460CF0AC
:1039300017F84FF07E58DFF864A1404501DD40469E
:1039400002E0504500D9504606F0E8F88346D9F821
:103950008C004E4670B1316806980CF04FF809D2D1
:10396000716806980CF0BBF804D25946D6F890005E
:10397000FFF749FF684608F093FA40490C22AC3142
:10398000684601F015FD18B9D6F8980001286CD1E9
:103990003A4800E0C6E09DE80E00AC3080E80E003A
:1039A000009818B9019808B9029858B36846FFF70B
:1039B00006FF044610F0FF4F57D0DFF8E490204692
:1039C00049460CF0A0F801460CF030F80BF0C7F8AF
:1039D0007060494620460BF0A8FF01460CF026F81F
:1039E0000BF0BDF8306002980BF0CAFF6FF00F01CA
:1039F0000CF039F921460BF0B3FF044640451FDDBA
:103A0000444620E02048306020487060D6F8980096
:103A1000012804D01B48B0601948F06025E0D6F8B2
:103A20009C80D6F8A840414620460CF06CF8B06067
:103A3000414620460BF079FFC6F89870F06014E01C
:103A4000544500D95446204606F068F8D6F89C1034
:103A50000CF059F8B060204606F060F8D6F89C10DB
:103A60000BF063FFC6F88C70F060DFF81080F16D2A
:103A700008F1580801BB0120002413E08C1100203C
:103A80000000B4420000B4C2000070420000F041E7
:103A90007B142E3E00401C4600004842000080BFC0
:103AA00000002041F06506EB04104146183008F094
:103AB000DFF8641C042CF6DB434907AA0C460C987B
:103AC000FFF749FE21460C9808F0BFFC03A808F058
:103AD0005FF90BF08CFF6FF005010CF0C4F829467C
:103AE000FFF71EFE59460698FFF7E9FDD6E91E01CD
:103AF000884201DA2844B067706F90B9306E28446C
:103B00003066B0F57A7F0CDD2F4930223C39A1F1C7
:103B10001000376601F0EFFC2B4841461C3808F0D6
:103B2000A7F8706F0FB0BDE8F08F70B588B004468D
:103B300004A808F0C5F8D4E93001451A684608F031
:103B400055F8064604AB04F1A00269462846FFF783
:103B500093FE09F0BBF808B0304670BD04224FF464
:103B60009671AFF2390008F0D1BEAFF2410009F012
:103B70006FBA10B5FFF78AFD00280DD11248002159
:103B80006438C0F88C100121C0F88810AFF23300FF
:103B9000BDE8104008F07EBF10BD10B5AFF2750053
:103BA00009F056FAAFF27D00BDE8104009F050BAB6
:103BB000054901206439C1F88C0000207047024893
:103BC0006438406F70470000F01100202DE9F04389
:103BD000044699B01D4691460E4680680BF0D0FE13
:103BE00001460BF023FF804660680BF0C9FE0146DA
:103BF0000BF01CFF074620680BF0C2FE01460BF0DD
:103C000015FF39460BF091FE41460BF08EFE0AF08F
:103C1000A6FF074620F000404FF08D410BF05FFFFC
:103C20007ED230680BF0ACFE6FF01D0841460CF000
:103C30001AF8049070680BF0A3FE41460CF013F8DC
:103C40000590B0680BF09CFE41460CF00CF8069015
:103C5000F0680BF095FE41460CF005F800260C9636
:103C6000079020680BF08CFE39460BF079FE0D9022
:103C700060680BF085FE39460BF072FE0E90A0686E
:103C80000BF07EFE39460BF06BFE0F9010AA0CA9CC
:103C900004A808F056FC14A904A808F0E2FB6A4640
:103CA00014A910A808F04DFC019908460BF0BEFEBF
:103CB0000299044608460BF0B9FE21460BF035FE8A
:103CC000FE49884201DAFE4C0BE0FE49884201DAE7
:103CD000FD4C06E0FD49884202DA4FF07A5400E0DC
:103CE000FB4C48460BF04CFEFA490BF039FE2146DE
:103CF0000BF09CFE04460896214602980BF096FEB7
:103D000009900198214680F000400BF08FFECDE92C
:103D10000A066A4604A908A808F013FC6A4600E0EF
:103D200025E004A9104608F06FFB684608F072FC15
:103D30001E2100980BF097FF0BF01BFE28601E2140
:103D400001980BF090FF0BF014FE68601E210298A2
:103D50000BF089FF0BF00DFEA8601E2103980BF0FD
:103D600082FF0BF006FEE86019B0BDE8F08396E82C
:103D70000F0085E80F00F7E72DE9F05F05460C46D8
:103D800080680BF0FDFD01460BF050FE07466868A9
:103D90000BF0F6FD01460BF049FE064628680BF0D5
:103DA000EFFD01460BF042FE31460BF0BEFD3946F9
:103DB0000BF0BBFD0AF0D3FE4FF07E5900270646FC
:103DC0004FF08048484505DCC4E90087A760E760FC
:103DD000BDE8F09FA8680BF0D3FD31460BF0C0FDA5
:103DE0008246014648460BF08EFE4FF40006B04274
:103DF00000DA00204FF0FF310BF035FF0AF0AFFE84
:103E00008346494650460BF090FDB04200DA002050
:103E10004FF0FF310BF027FF0AF0A1FE82466868E1
:103E20000BF0AEFD01460BF001FE064628680BF0D4
:103E3000A7FD01460BF0FAFD31460BF076FD0AF0C6
:103E40008EFE06464845BFDD1E2150460BF00BFF97
:103E50000BF08FFD206068680BF092FD31460BF08F
:103E60007FFD59460BF0E2FD1E210BF0FCFE0BF02E
:103E700080FD606028680BF083FD31460BF070FD1B
:103E800059460BF0D3FD94490BF0D0FD0BF071FDBA
:103E9000C4E902079CE72DE9F04105460C46C068DD
:103EA0000BF06EFD01460BF0C1FD8046A8680BF0DB
:103EB00067FD01460BF0BAFD074668680BF060FD30
:103EC00001460BF0B3FD064628680BF059FD01468C
:103ED0000BF0ACFD31460BF028FD39460BF025FD0B
:103EE00041460BF022FDB0F5000F06DA4FF080409E
:103EF000206000206060A0602DE00AF030FE0146E6
:103F00004FF07E500BF02CFD1E210BF0ACFE064650
:103F100028680BF035FD31460BF088FD0BF029FDCC
:103F2000206068680BF02CFD31460BF07FFD0BF034
:103F300020FD6060A8680BF023FD31460BF076FD94
:103F40000BF017FDA060E8680BF01AFD31460BF08E
:103F50006DFD0BF00EFDE060BDE8F08170B504462C
:103F600090F8300088B0400676D5A069002801DBC3
:103F7000014600E041424FF480320026574D914205
:103F80000BDAE169002900DA4942914205DA216A37
:103F9000002900DA4942914260DB002800DA404201
:103FA0004FF4C80188420BDCE069002800DA404287
:103FB000884205DC206A002800DA4042884201DDA0
:103FC000032000E00220A863696BA06A814219D037
:103FD0006863A06A0BF0D4FC41490BF0C1FC1D21C1
:103FE0000BF041FE0BF076FC3E4A3F4B0BF07CF9A8
:103FF00008220BF00AFE00223C4B0AF04BFF0BF0AC
:10400000DDF828630496296BA06908F0D6F90590BD
:10401000296BE06908F0D1F90690296B206A08F055
:10402000CCF907906A4604A92C4808F031FA0098A8
:104030002A4A800100900198694680010190029807
:1040400080010290039880010390104608F0CAF99D
:1040500022490846FFF71FFF08B070BDAE63FBE7BB
:104060002DE9F0430446D0F820018FB041067CD5FD
:104070001A4DD4F810111E4B2A68891AD4F82C2135
:104080005A438A4201DA032100E00221A963810533
:1040900004F58870804601D51049D4E0002104A8B9
:1040A00007F04CFE0D490C223C3104A801F080F9C8
:1040B00008BBD4F82801A96D88421BE017B7513915
:1040C000A69BC43B0AD7233C8FC2753DCDCC4C3E4A
:1040D000CDCCCC3E0014CD47000080CE4412002051
:1040E00000247449112D4454FB210940008066408E
:1040F00071981C007ED0208807AB80B204AA616A48
:1041000007F0FAFB09980BF03BFC01460BF08EFC24
:10411000074608980BF034FC01460BF087FC064676
:1041200007980BF02DFC01460BF080FC31460BF09C
:10413000FCFB39460BF0F9FB0AF011FD0646E84995
:104140000BF074FCE7490BF00BFC6FF00F010BF068
:104150008AFD0746D4F828010BF012FC39460BF013
:1041600065FCE1490BF0FCFB00E06EE04FF0FF3135
:104170000BF079FD074605F087FD814638460AF0C9
:10418000AFFC07464FF08040864204DAA864002066
:10419000E864286533E01E2148460BF064FD0BF00F
:1041A000E8FBA86407980BF0EBFB8146CF49384643
:1041B0000BF03CFC074649460BF038FC31460BF04F
:1041C000CFFB0BF0D6FBE86408980BF0D9FB014657
:1041D00038460BF02BFC31460BF0C2FB0BF0C9FB51
:1041E000286509980BF0CCFB014638460BF01EFC05
:1041F000314600E00EE00BF0B3FB0BF0BAFB04AB72
:10420000686593E8070005F13C0383E80700D4F8EC
:104210002801A8656A46B649404608F039F9B4480D
:104220000AAA14306946044608F032F9214640468D
:1042300008F00BF9AE486A460AA9483808F028F990
:10424000AB4968464839FFF726FE0FB08DE51FB52C
:104250000446A7486946483808F0F7F8A44A694672
:10426000283A204608F014F9A1491DCC383981E8D4
:104270001D001FBD2DE9F0479D4E0446483E90F8B5
:10428000740006F15C0A06F12008012500F05001D7
:10429000103692B004F5887904F15C07402906D005
:1042A00094F8200100F0500040280DD01EE0314667
:1042B0003846FFF761FDB4F82001C0050CD5514622
:1042C000484608F0C2F807E05146484608F0BDF8F5
:1042D000B4F87400C00509D585486946483808F027
:1042E000B4F842466946304608F0D2F8B4F82001E6
:1042F000C005204602D5FFF7B3FE01E0FFF72EFE12
:104300007B4932464839404608F0C2F894F87400B8
:10431000400671D5208EB4F820110843C00578D529
:104320000FAA3946304608F063FAD4E9172080FB1B
:104330000001C2FB0201626E6D4FC2FB0201483FE9
:104340004FF08042801A71F1020014DB04A807F0DC
:1043500067FDDDE9042080FB0001C2FB0201069A33
:10436000C2FB02014FF08042801A71F1020002DBB1
:104370000420B8630BE0B86B042808D041F28832FF
:10438000022806D0032804D001283AD009E00025ED
:1043900007E0E16E91FBF2F5012D00DA012503281B
:1043A00000D0AD0053480024454310980794800284
:1043B000294608F002F808900F98294640428002EA
:1043C00007F0FBFFCDE909040BAA314607A808F066
:1043D0005FF832460BA9104608F004F8314608464B
:1043E000FFF759FD42486946483808F02EF8424622
:1043F0006946304608F04CF812B00020BDE8F0875E
:1044000007E0E06E90FBF2F0012800DA01204500A1
:10441000C7E7334619463846E26EFFF7D7FBE1E7B8
:1044200070B50446008EC105D4F8200107D4B4F855
:104430007410C90503D4C10501D4002070BDC0F3B8
:104440000120032808D02046FFF714FF2848A16B5D
:10445000383808F0EBFDF0E704F5887124482EC9E0
:10446000383880E82E00F1E7234808F0F1BD2048F5
:1044700010B56C21483801F0A5F81D484FF0804177
:104480004838016101600162C163C165002010BD4F
:104490001D4810B5082219A1006800F089FF08B175
:1044A000322010BD1322BDE81040C821124808F088
:1044B0002DBA10B5FFF7DBFF002805D1AFF22F00B2
:1044C000BDE8104008F0E6BA10BD10B50A4808F083
:1044D000BFFDAFF24300BDE8104008F0EBBD0000A7
:1044E000DB0F49400000344300247449000080CEB3
:1044F0008C120020A69BC40021440008654D504C3E
:1045000020352E31000000001C00002010B5FE4BAD
:10451000FE4AFF4C002002EB8001401CC0B2CC627E
:104520000B620328F7D310BD70B5F84E002506EBDB
:104530008504D4F8B410206A0BF060FA02D2D4F8E3
:10454000B4002062D4F8B410E06A0BF0C8FA02D2CA
:10455000D4F8B400E0626D1CEDB2032DE7D370BD5A
:104560003EB50B46B0F8481009040091B0F84A1067
:10457000009A09040191B0F84C1009040291E34932
:104580004C6E121B0092019A8C6E121B0192029AC1
:10459000C96E511A0291816EB0F844006A4680B229
:1045A00007F0AAF93EBDF0B5D84F00242546D7F84C
:1045B00094208DB02E46012A01D1C7F8946009A934
:1045C000FFF7CEFF05A807F07BFB0599099860224D
:1045D000A0EBA130099006990A98A0EBA1300A90AF
:1045E00007990B98A0EBA130CA490B90081F00F067
:1045F00082FF0DF1240CC7489CE80E00143080E8BF
:104600000E00684607F00CFCC24960226C31081F9E
:1046100000F071FFBF489DE80E00803080E80E007A
:1046200000210922D7F82C04401CC7F82C0401EB08
:10463000410007EB8000DDF800C0D0F84C33491C86
:1046400093FBF2F31C44D0F85033092993FBF2F3A7
:104650001D44D0F8543393FBF2F31E44D0F8B83322
:1046600093FBF2F363440093D0F8BC33DDF804C04D
:1046700093FBF2F363440193D0F8C003029B90FBD9
:10468000F2F018440290CDDB002C00DA6442002DD9
:1046900000DA6D42002E00DA76420098002800DA37
:1046A000404200900198002800DA404201900298B0
:1046B000002800DA40420290009900208C4200DA83
:1046C000012001998D4200DA401C02998E4200DAE5
:1046D000401CD7F82C14092900DB401C04280DD1FC
:1046E00097F8240402280BD901468848D7F82824D3
:1046F000643008F051FA012008F048FA0DB0F0BD1E
:1047000008F032FAFAE72DE9F047804D0027DFF88C
:10471000088285F82474DFF80492DFF804A20646C4
:104720003C46C5F8287405EB8400E96BD0F8CC0052
:104730000BF0D5F918D8D5E91401002253460AF038
:10474000DFFF21F0004142464B460AF091FD0BD2BB
:1047500095F82404401C85F824040120D5F8281479
:10476000A0400143C5F82814641CE4B2032CDAD33A
:1047700095F8240480B3002406EBC400D0E900219E
:1047800010460AF01BFD05EB8401641CE4B2486688
:10479000032CF1D3C5F82C74A868042802DA95F824
:1047A0002404A86095F82404032815D15D49E8681D
:1047B000884211DCD5E91401002253460AF0A0FF1B
:1047C00021F0004142464B460AF052FD04D2A8684F
:1047D000032801D10420A86053492869884215DACA
:1047E0005249E868884211DCD5E914010022534699
:1047F0000AF086FF21F000414D4A4E4B0AF038FD89
:1048000004D2A868042801D10520A860BDE8F0877B
:104810002DE9F0413D4C0746D4F8A404012803D00B
:1048200000252846BDE8F08143494FF07E52A1F1B2
:10483000E80013460646FBF7A5FE344A30465032E0
:1048400002F5AC71FCF7AAF80500EAD06068401CDC
:104850006060D4E914010AF0B1FCB96E07F0ADFD57
:104860000BF08EF86FF00F010BF0FDF90BF032F842
:10487000C4E91401D4E96A010AF0A0FCA065D4E9F6
:104880006C010AF09BFCE065D4E96E010AF096FC2D
:104890002066D4E968010022284B0AF023FEC0D22A
:1048A000274A314613460846FBF76CFEB9E72DE967
:1048B000F04104460025D4E90301012602270BF04C
:1048C0000EF910D26169E0680BF009F90BD225648A
:1048D000D4E904010BF003F902D8C4E91167A1E798
:1048E000C4E911769EE7D4E903100BF0F8F82FD253
:1048F000D4E904010BF0F3F82AD226646169E06878
:104900000BF0EDF821D81DE000401CC6B0120020CD
:1049100000401C46001600209A9999999999B93F30
:104920000000F03FAE47E13D00007A43BC74933C89
:104930009CC420B07268913F781400200070A7409A
:10494000CDCCCC3EC4E911576CE7C4E9117569E7D9
:104950002764D4E903010BF0C2F802D8C4E9115668
:1049600060E7C4E911655DE700221146C26440F8C2
:10497000212000EB8103491C5A620329F7DB012146
:10498000C0E91D12704730B504461420A0650A2006
:104990002066002584F870502046FFF7E5FF656526
:1049A00030BD2DE9F04387B06946FFF7D9FD0025FA
:1049B0002E462C46E8466FF00F0903AF58F8240046
:1049C0000AF0DEFF49460BF04EF947F82400014695
:1049D0000BF02CF80AF07EFF2A4633460AF09EF9C7
:1049E000641C05460E46032CE8DB0AF081F8DFF86C
:1049F000B48505460E460024B94659F824000AF04D
:104A000069FF2A4633460AF045FA0AF055F908EBE1
:104A10008407D7F830140AF088FF641CC7F8300404
:104A2000032CEADBD8F88414491CC8F8841401214B
:104A3000C8F8AC1407B0BDE8F0832DE9F04186B0AA
:104A4000054604AA03A9684607F0BEFB00263746C0
:104A50003446E84658F8240001460AF0E7FF0AF019
:104A600039FF32463B460AF059F9641C06460F46A8
:104A7000032CEFDB0AF03CF806460F46002458F8FA
:104A800024000AF027FF32463B460AF003FA0AF0F8
:104A900013F955F824100AF048FF45F82400641C67
:104AA000032CECDB686D401C68650120E86706B0EC
:104AB000B8E62DE9F05F0025DFF8ECA404464FF0DE
:104AC0007E5BA846206D0AF05BFF014654F8250086
:104AD0000AF046FF04EB85060746B169514501D34C
:104AE00081F00041574501D2384601E087F000408F
:104AF0000BF009F8B7613063D4F83C90594648464A
:104B00000BF001F8716A0AF091FF39460AF00DFFC7
:104B100049460AF025FF7062504501D380F00040FD
:104B2000F06044F825806D1C032DCBDB2046FFF799
:104B3000BEFEE06CB0F57A7F01DA401CE06494F8C8
:104B40007010042603270125206C4FF0050A062962
:104B50000AD2DFE801F0030B142A4E326567C4F86D
:104B60004C80A56784F87050BDE8F09FE06F012885
:104B7000FAD1022084F87000C4F87880F4E704EBDE
:104B80008009616ED9F80C000AF0A9FF03D884F8F7
:104B9000706040462AE0A16ED9F80C000AF02EFFA2
:104BA0002ED81BE06567A567DEE704EB8000616E29
:104BB000C0680AF094FFD7D8E9E704EB8009A16E3A
:104BC000D9F80C000AF01AFF08D9F849D9F83000D2
:104BD000884206D9216EE06C8842C5DB84F870708B
:104BE000E0E784F870604046C4F84C806067A067D6
:104BF000BAE704EB8000E16EC0680AF0FFFEB3D8AC
:104C000084F870A0C4F84C80CCE710B504460AF0D4
:104C1000B7FEE7490AF00AFFE6490AF0A1FE4FF0A5
:104C2000FF310BF020F80AF055FE05F025F81E22A2
:104C30000AF0EBFF0AF0C2FADA49C1E9204010BDE0
:104C40002DE9F04F91B0002504460095019502959D
:104C5000C06E44F62061D34E884206DBD6F8801041
:104C6000884210D0FFF7D1FF0DE0D6F8482310445A
:104C7000C6F8480388427DDBE16E814201D0FFF730
:104C8000C4FFC6F84853206BC6F8B0042046FFF7AF
:104C900088FE06F5906003C8814204DBC648FFF732
:104CA00008FFC6F88454D6F8A804012802D120468B
:104CB000FFF779FCD6F8A40401285BD1684607F019
:104CC000CDF8029908460AF0B1FE019980460846DF
:104CD0000AF0ACFE0099074608460AF0A7FE3946DE
:104CE0000AF023FE41460AF020FE09F038FF0E21AB
:104CF000F0600AF0B8FF0AF03CFEADF81C00AF49C6
:104D0000A946ADF81E50ADF8205007A80991FDF74F
:104D1000E1FB03A807F0E4F8316F039807F04DFBBF
:104D20000546716F049807F048FB0544B16F05987C
:104D300007F043FB0544F16F069807F03EFB05EBD7
:104D4000000803AF002597E80F0006F170070DF18A
:104D5000340A87E80F000DF1280B04EB4507A16E1C
:104D600037F8480F000407F028FB4AF825000AF03E
:104D700007FE00E098E06FF00F010AF074FF06EB09
:104D800085014861388801044BF825106D1CEDB28F
:104D9000032DE2D389480AA9E8380746FBF785FCCA
:104DA000D6F82813306881427EDBD4F8E4000AF09C
:104DB000E7FD6FF00F010AF056FFD6F8D810054650
:104DC00011F0FF4F06D028460AF09DFE20F000406B
:104DD000C6F8DC00C6F8D850B068062811D2DFE863
:104DE00000F0030303030A1A7548B0634FF07E50C6
:104DF000F063C82004E07348B0637348F063642034
:104E00003064208EC00509980BD4FDF777FA0AF0BC
:104E1000C1FD68490AE06D48B0636D48F063322017
:104E2000EEE7FDF7CCF90AF0B5FD6A490AF098FD06
:104E300030619821099800F0C5FBD6F884104145EF
:104E40003BDA3069B0F5000F37DBB16B0AF0D6FD05
:104E500033D2316C7068884205DA2046FFF7D8FCFF
:104E6000002852D00BE05C49D6F8B000884206DB3F
:104E70002046FFF7CDFC002847D0C6F8049000205C
:104E800006EB8001401C4A69C0B2C1F8B420032877
:104E9000F6D3FFF749FB002406EB8405E96A286A8C
:104EA0000AF031FE641C00E02EE0E4B2C5F8CC004C
:104EB000032CF1D34948FFF726FC002406EB8405B8
:104EC0006969D5F898000AF01EFE641C20F00040C5
:104ED000E4B2C5F8A400032CF0D3F6E929010AF0E6
:104EE00024FDB1680AF021FDF0600020A43E06EB2D
:104EF0008001401C4A69C0B2C1F898200328F6D34B
:104F0000E821384600F05EFB002011B0BDE8F08FCC
:104F100010B54FF49761234800F054FB214C0A2050
:104F2000206040072067FFF7F1FA2348FFF72BFDC9
:104F30002068C4F880044FF08440C4F86C041E203C
:104F4000C4F88C042648C4F898042648C4F894048D
:104F50002548C4F89C041920FDF769FD002010BD08
:104F6000012240F25231AFF2273007F0CFBCAFF24E
:104F70002F3008F06DB810B5FFF7CAFF002805D133
:104F8000AFF22300BDE8104007F084BD10BD10B59E
:104F9000AFF2533008F05CF8AFF23B00BDE81040D0
:104FA00008F088B8B012002000008080CDCC4CBD45
:104FB000368D274000247449E0160020601500203B
:104FC0000080BB44000096439A99993F00007042CC
:104FD0003333B33F0050C347CDCC4C3D5814002071
:104FE000CDCCCC3ECDCC4C3F3333333F01488068F1
:104FF00070470000B01200207047B2F120030AD5BC
:10500000C2F1200301FA02F120FA03F300FA02F0E0
:1050100041EA0301704700FA03F14FF000007047C6
:10502000B2F120030AD5C2F1200320FA02F001FAFE
:1050300003F341FA02F140EA0300704741FA03F03A
:105040004FEAE171704710B54C1084EA530404D55F
:105050004042C1F1000138BF491E1B4204D55242F3
:10506000C3F1000338BF5B1E00F0D7FA14F0804F85
:1050700004D04042C1F1000138BF491E14F0004F76
:1050800004D05242C3F1000338BF5B1E10BD0000C4
:105090001CB50C46064B7B4469460090204600F048
:1050A000FAFD04460020694600F008FE20461CBDBB
:1050B000230C00000FB4044910B503AA029800F0B5
:1050C00003FE10BC5DF814FB1400002070B504460C
:1050D00085690068C10601D5302600E02026C0079A
:1050E00007D070BDD4E9012130469047206A401CAA
:1050F00020626D1EF6D570BD70B5044685690078D6
:10510000C00707D170BDD4E9012120209047206A53
:10511000401C20626D1EF6D570BD00002DE9F041E7
:105120000646002410687529314616A510D000F0F7
:10513000F6FA002802DA404213A507E031688A0730
:1051400001D512A502E0490704D511A5012401E00B
:1051500000F0EEFA00210A2206F1240709E0B0FB74
:10516000F2FCB0FBF2F302FB1C003030785418461E
:10517000491C0028F3D123462A463046BDE8F041B9
:1051800000F008BB000000002D0000002B00000014
:1051900020000000F0B40D460188090502D5214C1D
:1051A0007C4402E01F4C7C440E34002100F12406B4
:1051B00008E002F00F071209E75D42EA03721B09DB
:1051C0007754491C52EA0307F3D1027800231207EF
:1051D00004D5702D06D009B1022311342246F0BC4B
:1051E00000F0D8BA01231034F8E770B504460D4634
:1051F0002146106800F09CFA024629462046BDE888
:1052000070400023C6E7D21D22F00703D3E9002334
:10521000C0E70368126843F0200303600823C361FA
:105220000023B7E7CDB900002DE9F05F89460446B9
:105230004FF0000ADFF874B1FB44C0F820A020460C
:10524000E1688847002874D0252806D0D4E90121D8
:105250009047206A401C2062F1E700265F46204606
:10526000E16888472028054607DB312D05D27819EB
:1052700010F8200C08B10643F1E7B00701D526F07D
:105280000406C4F81CA00027C4F818A02A2D09D0D1
:10529000284604F02FF938B304EB8708303DC8F8EE
:1052A000185019E059F8041B204604EB870291615D
:1052B000E1688847012F054618D1E069002820DA07
:1052C00026F020061DE0D8F8180000EB800005EB62
:1052D00040003038C8F818002046E1688847054685
:1052E00004F008F90028EED1012F0AD02E2D08D1A4
:1052F0002046E16888477F1C0546022F46F02006BD
:10530000C4DBA069002803DA404246F00106A06130
:10531000F00701D026F010066C2D0BD0682D09D0B7
:105320004C2D39D06A2D35D0742D35D07A2D33D00F
:1053300016E038E0E1682F4620468847B842054627
:1053400009D16C2F26D04FF48060E16806432046D7
:105350008847054604E06C2F1AD04FF4807006434E
:105360000DB3A5F14100192802D8203546F4006696
:105370004A462946204626604E46FAF73FFF80B14E
:1053800001280BD0F61D26F0070000F1080956E7AA
:105390004020E4E78020D8E70020D6E706F10409A2
:1053A0004DE7284652E7206ABDE8F09F5DB900004E
:1053B00040EA010310B59B070FD1042A0DD310C892
:1053C00008C9121F9C42F8D020BA19BA884201D9E4
:1053D000012010BD4FF0FF3010BD1AB1D30703D02C
:1053E000521C07E0002010BD10F8013B11F8014BE2
:1053F0001B1B07D110F8013B11F8014B1B1B01D1FE
:10540000921EF1D1184610BD032A40F2308010F0F0
:10541000030C00F0158011F8013BBCF1020F62444F
:1054200098BF11F801CB00F8013B38BF11F8013BE0
:10543000A2F1040298BF00F801CB38BF00F8013B8D
:1054400011F0030300F02580083AC0F0088051F8FD
:10545000043B083A51F804CBA0E80810F5E7121D08
:105460005CBF51F8043B40F8043BAFF30080D20727
:1054700024BF11F8013B11F801CB48BF11F8012BF3
:1054800024BF00F8013B00F801CB48BF00F8012B16
:10549000704710B5203AC0F00B80B1E81850203AA0
:1054A000A0E81850B1E81850A0E81850BFF4F5AFC4
:1054B0005FEA027C24BFB1E81850A0E8185044BF4E
:1054C00018C918C0BDE810405FEA827C24BF51F8BB
:1054D000043B40F8043B08BF7047D20728BF31F8AF
:1054E000023B48BF11F8012B28BF20F8023B48BF00
:1054F00000F8012B7047431A28BF9A427FF6C9AFC4
:10550000104410F0030F11441EBF11F8013D521E4C
:1055100000F8013D10F0030F7FF4F6AF103AC0F031
:105520000A8010B531E91850103A20E91850BFF43C
:10553000F9AFBDE81040530724BF31E9081020E956
:10554000081044BF51F8043D40F8043D12F0030F29
:1055500008BF7047D20728BF31F8023D48BF11F895
:10556000012C28BF20F8023D48BF00F8012C7047ED
:1055700002F0FF0343EA032242EA024200F002B8CB
:105580004FF000020429C0F0128010F0030C00F06C
:105590001B80CCF1040CBCF1020F18BF00F8012BEA
:1055A000A8BF20F8022BA1EB0C0100F00DB85FEAB8
:1055B000C17C24BF00F8012B00F8012B48BF00F884
:1055C000012B70474FF0000200B5134694469646F3
:1055D000203922BFA0E80C50A0E80C50B1F1200106
:1055E000BFF4F7AF090728BFA0E80C5048BF0CC0B4
:1055F0005DF804EB890028BF40F8042B08BF704712
:1056000048BF20F8022B11F0804F18BF00F8012B83
:105610007047704770477047704753EA020C00F0BC
:1056200069802DE9F04B4FF00006002B1FBFB3FA45
:1056300083F503FA05F424FA05F65E4012BF16431B
:10564000B2FA82F502FA05F4C5F120051EBF22FA6E
:1056500005FC44EA0C04203556EA044C4FEA144495
:1056600018BF641C4FF000084FF00009904271EB26
:10567000030C39D3002919BFB1FA81F701FA07F6F3
:10568000B0FA80F700FA07F6C7F120071EBF20FA2C
:1056900007FC46EA0C062037B6FBF4FCA7EB05072F
:1056A000103F07F01F0BCBF120060CFA0BFB2CFA76
:1056B00006F644BFB3460026202FA4BF5E464FF037
:1056C000000B5BEA060C08BF4FF0010B19EB0B094E
:1056D000ABFB027C48EB0608C01B06FB02CC0BFBB5
:1056E00003CC71EB0C01C1E70B460246414648462C
:1056F000BDE8F08B13B54FF000004FF00001AFF3A1
:105700000080BDE81C40704710B500F0C7FB006882
:1057100010BD10B5044600F0C1FB046010BD09685F
:105720004A0501D540B27047C905FCD500B27047A3
:1057300009684A0501D5C0B27047C905FCD580B2D9
:10574000704770B50C460546012A05D028788006BA
:1057500000D5EA69002302E0012305E05B1C9342C7
:1057600002D2E05C0028F9D1A869E618C01AA86145
:10577000286A184428622846FFF7A8FC04E0D5E907
:10578000012114F8010B9047B442F8D32846FFF7E3
:10579000B3FC70BD2DE9F0470D469946924604468C
:1057A00000F124080168880604D5E06921F01001A1
:1057B000216000E00120A84201DD471B00E0002736
:1057C000A1697A1902EB0900081AA0612078C006C5
:1057D00002D42046FFF77AFC002608E0D4E9012134
:1057E0001AF806009047206A401C761C20624E453D
:1057F000F4DB2078C0060AD52046FFF767FC06E0F8
:10580000D4E9012130209047206A401C2062381ED4
:10581000A7F10107F4DC07E0D4E9012118F805003D
:105820009047206A401C2062281EA5F10105F3DC88
:105830002046FFF761FC2078000602D50220BDE873
:10584000F0870120FBE711680268006A530501D563
:1058500008700AE0D30501D5088006E0130603D5D9
:10586000C217C1E9000200E00860012070477047DC
:105870002DE9FF4F0C461E464FF0FF378BB0D2E9A3
:105880000001DDF860800A908A46C1F30A5505B927
:105890003D46002108464FF00000BAF1000F00F429
:1058A000400005DA00EB80004FF4400101EA5000AF
:1058B0004FEA9059B9F1010F00DDB9460A9850EA54
:1058C0004A000ED044F61050A5F2FF3545432F1480
:1058D000B8F1000F1ED07542291E1EDDC9F100026D
:1058E0001CE0B8F1010F4FF0000001D0302103E0BF
:1058F000F24305E02154401CB042FBDB304600225D
:10590000002121540B99C1F80880C1E900200FB093
:10591000BDE8F08FBD1B6D1CDEE74A4600DA694228
:1059200006A800F0EFFC06AB93E8070003AB83E8A2
:10593000070050460A9900F0F7FD8DE80700A0F532
:1059400000501F3800900398002D0ADD42F21F011D
:105950004A460844002303A90390684601F060F812
:1059600009E0A0F500504A461F38002303A9039020
:10597000684601F06AF88DE807000004000C03D0C7
:105980004FF0FF30410800E01046B8F1000F03D09F
:105990000022009215461EE0751E05D400F082FA22
:1059A000303262556D1EF9D5B3460122084302D04C
:1059B00000227F1C04E02078302801D100227F1EC5
:1059C000002A099784D01DE0112D07DA00F06AFA49
:1059D000303262556D1C50EA0102F5D1084302D005
:1059E0000098C8B10EE00021681E05E0235C625CEF
:1059F00063542254401E491C8142F7DBAB46A81B6E
:105A0000401E0990002004F80B000B98099AC0F87A
:105A10000880C0E9002B7AE711264FF0000857E70D
:105A20002DE9F04F88460446D21D22F0070191B0BF
:105A3000D1E90001CDE90A0102F096FA02460B987D
:105A4000C00F01D02D2007E02068810701D52B2051
:105A500002E0202101EAC000032A099001D0072AB0
:105A600005DB03464146204600F0E0FB0BE12078D1
:105A7000800601D5E06900E00620B8F1650F814697
:105A800006D0B8F1660F18D0B8F1670F70D131E0C9
:105A90000020B9F1110F009001DB112301E009F1A1
:105AA00001030AAA01A90CA8FFF7E2FEDDE90C70C8
:105AB000002609F10105834647E001204B4600908E
:105AC0004FF000470AAA01A90CA8FFF7D1FEDDE9B3
:105AD0000DB00C995D46002610B909F101000D18B2
